{"abi":[{"type":"constructor","inputs":[{"name":"_endpoint","type":"address","internalType":"address"},{"name":"_delegate","type":"address","internalType":"address"}],"stateMutability":"nonpayable"},{"type":"function","name":"allowInitializePath","inputs":[{"name":"origin","type":"tuple","internalType":"struct Origin","components":[{"name":"srcEid","type":"uint32","internalType":"uint32"},{"name":"sender","type":"bytes32","internalType":"bytes32"},{"name":"nonce","type":"uint64","internalType":"uint64"}]}],"outputs":[{"name":"","type":"bool","internalType":"bool"}],"stateMutability":"view"},{"type":"function","name":"data","inputs":[],"outputs":[{"name":"","type":"string","internalType":"string"}],"stateMutability":"view"},{"type":"function","name":"endpoint","inputs":[],"outputs":[{"name":"","type":"address","internalType":"contract ILayerZeroEndpointV2"}],"stateMutability":"view"},{"type":"function","name":"isComposeMsgSender","inputs":[{"name":"","type":"tuple","internalType":"struct Origin","components":[{"name":"srcEid","type":"uint32","internalType":"uint32"},{"name":"sender","type":"bytes32","internalType":"bytes32"},{"name":"nonce","type":"uint64","internalType":"uint64"}]},{"name":"","type":"bytes","internalType":"bytes"},{"name":"_sender","type":"address","internalType":"address"}],"outputs":[{"name":"","type":"bool","internalType":"bool"}],"stateMutability":"view"},{"type":"function","name":"lzReceive","inputs":[{"name":"_origin","type":"tuple","internalType":"struct Origin","components":[{"name":"srcEid","type":"uint32","internalType":"uint32"},{"name":"sender","type":"bytes32","internalType":"bytes32"},{"name":"nonce","type":"uint64","internalType":"uint64"}]},{"name":"_guid","type":"bytes32","internalType":"bytes32"},{"name":"_message","type":"bytes","internalType":"bytes"},{"name":"_executor","type":"address","internalType":"address"},{"name":"_extraData","type":"bytes","internalType":"bytes"}],"outputs":[],"stateMutability":"payable"},{"type":"function","name":"nextNonce","inputs":[{"name":"","type":"uint32","internalType":"uint32"},{"name":"","type":"bytes32","internalType":"bytes32"}],"outputs":[{"name":"nonce","type":"uint64","internalType":"uint64"}],"stateMutability":"view"},{"type":"function","name":"oAppVersion","inputs":[],"outputs":[{"name":"senderVersion","type":"uint64","internalType":"uint64"},{"name":"receiverVersion","type":"uint64","internalType":"uint64"}],"stateMutability":"pure"},{"type":"function","name":"owner","inputs":[],"outputs":[{"name":"","type":"address","internalType":"address"}],"stateMutability":"view"},{"type":"function","name":"peers","inputs":[{"name":"eid","type":"uint32","internalType":"uint32"}],"outputs":[{"name":"peer","type":"bytes32","internalType":"bytes32"}],"stateMutability":"view"},{"type":"function","name":"quote","inputs":[{"name":"_dstEid","type":"uint32","internalType":"uint32"},{"name":"_message","type":"string","internalType":"string"},{"name":"_options","type":"bytes","internalType":"bytes"},{"name":"_payInLzToken","type":"bool","internalType":"bool"}],"outputs":[{"name":"fee","type":"tuple","internalType":"struct MessagingFee","components":[{"name":"nativeFee","type":"uint256","internalType":"uint256"},{"name":"lzTokenFee","type":"uint256","internalType":"uint256"}]}],"stateMutability":"view"},{"type":"function","name":"renounceOwnership","inputs":[],"outputs":[],"stateMutability":"nonpayable"},{"type":"function","name":"send","inputs":[{"name":"_dstEid","type":"uint32","internalType":"uint32"},{"name":"_message","type":"string","internalType":"string"},{"name":"_options","type":"bytes","internalType":"bytes"},{"name":"_nativeFee","type":"uint256","internalType":"uint256"}],"outputs":[{"name":"receipt","type":"tuple","internalType":"struct MessagingReceipt","components":[{"name":"guid","type":"bytes32","internalType":"bytes32"},{"name":"nonce","type":"uint64","internalType":"uint64"},{"name":"fee","type":"tuple","internalType":"struct MessagingFee","components":[{"name":"nativeFee","type":"uint256","internalType":"uint256"},{"name":"lzTokenFee","type":"uint256","internalType":"uint256"}]}]}],"stateMutability":"payable"},{"type":"function","name":"setDelegate","inputs":[{"name":"_delegate","type":"address","internalType":"address"}],"outputs":[],"stateMutability":"nonpayable"},{"type":"function","name":"setPeer","inputs":[{"name":"_eid","type":"uint32","internalType":"uint32"},{"name":"_peer","type":"bytes32","internalType":"bytes32"}],"outputs":[],"stateMutability":"nonpayable"},{"type":"function","name":"transferOwnership","inputs":[{"name":"newOwner","type":"address","internalType":"address"}],"outputs":[],"stateMutability":"nonpayable"},{"type":"event","name":"OwnershipTransferred","inputs":[{"name":"previousOwner","type":"address","indexed":true,"internalType":"address"},{"name":"newOwner","type":"address","indexed":true,"internalType":"address"}],"anonymous":false},{"type":"event","name":"PeerSet","inputs":[{"name":"eid","type":"uint32","indexed":false,"internalType":"uint32"},{"name":"peer","type":"bytes32","indexed":false,"internalType":"bytes32"}],"anonymous":false},{"type":"error","name":"AddressEmptyCode","inputs":[{"name":"target","type":"address","internalType":"address"}]},{"type":"error","name":"AddressInsufficientBalance","inputs":[{"name":"account","type":"address","internalType":"address"}]},{"type":"error","name":"FailedInnerCall","inputs":[]},{"type":"error","name":"InvalidDelegate","inputs":[]},{"type":"error","name":"InvalidEndpointCall","inputs":[]},{"type":"error","name":"LzTokenUnavailable","inputs":[]},{"type":"error","name":"NoPeer","inputs":[{"name":"eid","type":"uint32","internalType":"uint32"}]},{"type":"error","name":"NotEnoughNative","inputs":[{"name":"msgValue","type":"uint256","internalType":"uint256"}]},{"type":"error","name":"OnlyEndpoint","inputs":[{"name":"addr","type":"address","internalType":"address"}]},{"type":"error","name":"OnlyPeer","inputs":[{"name":"eid","type":"uint32","internalType":"uint32"},{"name":"sender","type":"bytes32","internalType":"bytes32"}]},{"type":"error","name":"OwnableInvalidOwner","inputs":[{"name":"owner","type":"address","internalType":"address"}]},{"type":"error","name":"OwnableUnauthorizedAccount","inputs":[{"name":"account","type":"address","internalType":"address"}]},{"type":"error","name":"SafeERC20FailedOperation","inputs":[{"name":"token","type":"address","internalType":"address"}]}],"bytecode":{"object":"0x60e0604052601560a09081527f4e6f7468696e67207265636569766564207965742e000000000000000000000060c0526002906200003e908262000241565b503480156200004c57600080fd5b506040516200187f3803806200187f8339810160408190526200006f916200032a565b81818181806001600160a01b038116620000a357604051631e4fbdf760e01b81526000600482015260240160405180910390fd5b620000ae816200014a565b506001600160a01b038083166080528116620000dd57604051632d618d8160e21b815260040160405180910390fd5b60805160405163ca5eb5e160e01b81526001600160a01b0383811660048301529091169063ca5eb5e190602401600060405180830381600087803b1580156200012557600080fd5b505af11580156200013a573d6000803e3d6000fd5b5050505050505050505062000362565b600080546001600160a01b038381166001600160a01b0319831681178455604051919092169283917f8be0079c531659141344cd1fd0a4f28419497f9722a3daafe3b4186f6b6457e09190a35050565b634e487b7160e01b600052604160045260246000fd5b600181811c90821680620001c557607f821691505b602082108103620001e657634e487b7160e01b600052602260045260246000fd5b50919050565b601f8211156200023c576000816000526020600020601f850160051c81016020861015620002175750805b601f850160051c820191505b81811015620002385782815560010162000223565b5050505b505050565b81516001600160401b038111156200025d576200025d6200019a565b62000275816200026e8454620001b0565b84620001ec565b602080601f831160018114620002ad5760008415620002945750858301515b600019600386901b1c1916600185901b17855562000238565b600085815260208120601f198616915b82811015620002de57888601518255948401946001909101908401620002bd565b5085821015620002fd5787850151600019600388901b60f8161c191681555b5050505050600190811b01905550565b80516001600160a01b03811681146200032557600080fd5b919050565b600080604083850312156200033e57600080fd5b62000349836200030d565b915062000359602084016200030d565b90509250929050565b6080516114d7620003a86000396000818161015b0152818161034b0152818161057b01528181610800015281816108e3015281816109da0152610a9101526114d76000f3fe6080604052600436106100e85760003560e01c806382413eac1161008a578063ca5eb5e111610059578063ca5eb5e1146102bc578063f2fde38b146102dc578063f77e5dd3146102fc578063ff7bd03d1461032957600080fd5b806382413eac146102045780638da5cb5b14610243578063b4ab5dd114610261578063bb0b6a531461028157600080fd5b80635e280f11116100c65780635e280f1114610149578063715018a61461019557806373d4a13a146101aa5780637d25a05e146101cc57600080fd5b806313137d65146100ed57806317442b70146101025780633400288b14610129575b600080fd5b6101006100fb366004610d5a565b610349565b005b34801561010e57600080fd5b50604080516001815260026020820152015b60405180910390f35b34801561013557600080fd5b50610100610144366004610e12565b610409565b34801561015557600080fd5b5061017d7f000000000000000000000000000000000000000000000000000000000000000081565b6040516001600160a01b039091168152602001610120565b3480156101a157600080fd5b5061010061041f565b3480156101b657600080fd5b506101bf610433565b6040516101209190610e8c565b3480156101d857600080fd5b506101ec6101e7366004610e12565b6104c1565b6040516001600160401b039091168152602001610120565b34801561021057600080fd5b5061023361021f366004610e9f565b6001600160a01b0381163014949350505050565b6040519015158152602001610120565b34801561024f57600080fd5b506000546001600160a01b031661017d565b61027461026f366004610fb0565b6104ca565b604051610120919061102e565b34801561028d57600080fd5b506102ae61029c366004611070565b60016020526000908152604090205481565b604051908152602001610120565b3480156102c857600080fd5b506101006102d736600461108b565b610554565b3480156102e857600080fd5b506101006102f736600461108b565b6105da565b34801561030857600080fd5b5061031c6103173660046110b6565b610618565b6040516101209190611145565b34801561033557600080fd5b5061023361034436600461115c565b610666565b7f00000000000000000000000000000000000000000000000000000000000000006001600160a01b03163314610399576040516391ac5e4f60e01b81523360048201526024015b60405180910390fd5b602087018035906103b3906103ae908a611070565b61069c565b146103f1576103c56020880188611070565b60405163309afaf360e21b815263ffffffff909116600482015260208801356024820152604401610390565b610400878787878787876106d8565b50505050505050565b6104116106fb565b61041b8282610728565b5050565b6104276106fb565b610431600061077d565b565b6002805461044090611178565b80601f016020809104026020016040519081016040528092919081815260200182805461046c90611178565b80156104b95780601f1061048e576101008083540402835291602001916104b9565b820191906000526020600020905b81548152906001019060200180831161049c57829003601f168201915b505050505081565b60005b92915050565b6104d2610c9e565b6000856040516020016104e59190610e8c565b60408051601f198184030181526020601f8801819004810284018101909252868352925061054991899184919089908990819084018382808284376000920182905250604080518082019091528b8152602081019190915292503391506107cd9050565b979650505050505050565b61055c6106fb565b60405163ca5eb5e160e01b81526001600160a01b0382811660048301527f0000000000000000000000000000000000000000000000000000000000000000169063ca5eb5e190602401600060405180830381600087803b1580156105bf57600080fd5b505af11580156105d3573d6000803e3d6000fd5b5050505050565b6105e26106fb565b6001600160a01b03811661060c57604051631e4fbdf760e01b815260006004820152602401610390565b6106158161077d565b50565b604080518082019091526000808252602082015260008460405160200161063f9190610e8c565b604051602081830303815290604052905061065c868286866108cd565b9695505050505050565b600060208201803590600190839061067e9086611070565b63ffffffff1681526020810191909152604001600020541492915050565b63ffffffff8116600090815260016020526040812054806104c45760405163f6ff4fb760e01b815263ffffffff84166004820152602401610390565b6106e4848601866111ac565b6002906106f19082611238565b5050505050505050565b6000546001600160a01b031633146104315760405163118cdaa760e01b8152336004820152602401610390565b63ffffffff8216600081815260016020908152604091829020849055815192835282018390527f238399d427b947898edb290f5ff0f9109849b1c3ba196a42e35f00c50a54b98b910160405180910390a15050565b600080546001600160a01b038381166001600160a01b0319831681178455604051919092169283917f8be0079c531659141344cd1fd0a4f28419497f9722a3daafe3b4186f6b6457e09190a35050565b6107d5610c9e565b60006107e484600001516109ae565b6020850151909150156107fe576107fe84602001516109d6565b7f00000000000000000000000000000000000000000000000000000000000000006001600160a01b0316632637a450826040518060a001604052808b63ffffffff16815260200161084e8c61069c565b81526020018a815260200189815260200160008960200151111515815250866040518463ffffffff1660e01b815260040161088a9291906112f7565b60806040518083038185885af11580156108a8573d6000803e3d6000fd5b50505050506040513d601f19601f8201168201806040525081019061054991906113be565b60408051808201909152600080825260208201527f00000000000000000000000000000000000000000000000000000000000000006001600160a01b031663ddc28c586040518060a001604052808863ffffffff1681526020016109308961069c565b8152602001878152602001868152602001851515815250306040518363ffffffff1660e01b81526004016109659291906112f7565b6040805180830381865afa158015610981573d6000803e3d6000fd5b505050506040513d601f19601f820116820180604052508101906109a5919061142f565b95945050505050565b60008134146109d2576040516304fb820960e51b8152346004820152602401610390565b5090565b60007f00000000000000000000000000000000000000000000000000000000000000006001600160a01b031663e4fe1d946040518163ffffffff1660e01b8152600401602060405180830381865afa158015610a36573d6000803e3d6000fd5b505050506040513d601f19601f82011682018060405250810190610a5a919061144b565b90506001600160a01b038116610a83576040516329b99a9560e11b815260040160405180910390fd5b6040805133602482018190527f00000000000000000000000000000000000000000000000000000000000000006001600160a01b03818116604485015260648085018890528551808603909101815260849094019094526020830180516001600160e01b03166323b872dd60e01b17905261041b938516928690610b08908590610b0e565b50505050565b6000610b236001600160a01b03841683610b76565b90508051600014158015610b48575080806020019051810190610b469190611468565b155b15610b7157604051635274afe760e01b81526001600160a01b0384166004820152602401610390565b505050565b6060610b8483836000610b8b565b9392505050565b606081471015610bb05760405163cd78605960e01b8152306004820152602401610390565b600080856001600160a01b03168486604051610bcc9190611485565b60006040518083038185875af1925050503d8060008114610c09576040519150601f19603f3d011682016040523d82523d6000602084013e610c0e565b606091505b509150915061065c868383606082610c2e57610c2982610c75565b610b84565b8151158015610c4557506001600160a01b0384163b155b15610c6e57604051639996b31560e01b81526001600160a01b0385166004820152602401610390565b5080610b84565b805115610c855780518082602001fd5b604051630a12f52160e11b815260040160405180910390fd5b60405180606001604052806000801916815260200160006001600160401b03168152602001610ce0604051806040016040528060008152602001600081525090565b905290565b600060608284031215610cf757600080fd5b50919050565b60008083601f840112610d0f57600080fd5b5081356001600160401b03811115610d2657600080fd5b602083019150836020828501011115610d3e57600080fd5b9250929050565b6001600160a01b038116811461061557600080fd5b600080600080600080600060e0888a031215610d7557600080fd5b610d7f8989610ce5565b96506060880135955060808801356001600160401b0380821115610da257600080fd5b610dae8b838c01610cfd565b909750955060a08a01359150610dc382610d45565b90935060c08901359080821115610dd957600080fd5b50610de68a828b01610cfd565b989b979a50959850939692959293505050565b803563ffffffff81168114610e0d57600080fd5b919050565b60008060408385031215610e2557600080fd5b610e2e83610df9565b946020939093013593505050565b60005b83811015610e57578181015183820152602001610e3f565b50506000910152565b60008151808452610e78816020860160208601610e3c565b601f01601f19169290920160200192915050565b602081526000610b846020830184610e60565b60008060008060a08587031215610eb557600080fd5b610ebf8686610ce5565b935060608501356001600160401b03811115610eda57600080fd5b610ee687828801610cfd565b9094509250506080850135610efa81610d45565b939692955090935050565b634e487b7160e01b600052604160045260246000fd5b60006001600160401b0380841115610f3557610f35610f05565b604051601f8501601f19908116603f01168101908282118183101715610f5d57610f5d610f05565b81604052809350858152868686011115610f7657600080fd5b858560208301376000602087830101525050509392505050565b600082601f830112610fa157600080fd5b610b8483833560208501610f1b565b600080600080600060808688031215610fc857600080fd5b610fd186610df9565b945060208601356001600160401b0380821115610fed57600080fd5b610ff989838a01610f90565b9550604088013591508082111561100f57600080fd5b5061101c88828901610cfd565b96999598509660600135949350505050565b6000608082019050825182526001600160401b0360208401511660208301526040830151611069604084018280518252602090810151910152565b5092915050565b60006020828403121561108257600080fd5b610b8482610df9565b60006020828403121561109d57600080fd5b8135610b8481610d45565b801515811461061557600080fd5b600080600080608085870312156110cc57600080fd5b6110d585610df9565b935060208501356001600160401b03808211156110f157600080fd5b6110fd88838901610f90565b9450604087013591508082111561111357600080fd5b508501601f8101871361112557600080fd5b61113487823560208401610f1b565b9250506060850135610efa816110a8565b8151815260208083015190820152604081016104c4565b60006060828403121561116e57600080fd5b610b848383610ce5565b600181811c9082168061118c57607f821691505b602082108103610cf757634e487b7160e01b600052602260045260246000fd5b6000602082840312156111be57600080fd5b81356001600160401b038111156111d457600080fd5b6111e084828501610f90565b949350505050565b601f821115610b71576000816000526020600020601f850160051c810160208610156112115750805b601f850160051c820191505b818110156112305782815560010161121d565b505050505050565b81516001600160401b0381111561125157611251610f05565b6112658161125f8454611178565b846111e8565b602080601f83116001811461129a57600084156112825750858301515b600019600386901b1c1916600185901b178555611230565b600085815260208120601f198616915b828110156112c9578886015182559484019460019091019084016112aa565b50858210156112e75787850151600019600388901b60f8161c191681555b5050505050600190811b01905550565b6040815263ffffffff8351166040820152602083015160608201526000604084015160a0608084015261132d60e0840182610e60565b90506060850151603f198483030160a085015261134a8282610e60565b60809690960151151560c08501525050506001600160a01b039190911660209091015290565b60006040828403121561138257600080fd5b604051604081018181106001600160401b03821117156113a4576113a4610f05565b604052825181526020928301519281019290925250919050565b6000608082840312156113d057600080fd5b604051606081016001600160401b0382821081831117156113f3576113f3610f05565b816040528451835260208501519150808216821461141057600080fd5b5060208201526114238460408501611370565b60408201529392505050565b60006040828403121561144157600080fd5b610b848383611370565b60006020828403121561145d57600080fd5b8151610b8481610d45565b60006020828403121561147a57600080fd5b8151610b84816110a8565b60008251611497818460208701610e3c565b919091019291505056fea2646970667358221220b603cd920e95da0792025cd35882c34f71f50d440f5e000ce1d4eda31fa5bd6b64736f6c63430008160033","linkReferences":{}},"methodIdentifiers":{"allowInitializePath((uint32,bytes32,uint64))":"ff7bd03d","data()":"73d4a13a","endpoint()":"5e280f11","isComposeMsgSender((uint32,bytes32,uint64),bytes,address)":"82413eac","lzReceive((uint32,bytes32,uint64),bytes32,bytes,address,bytes)":"13137d65","nextNonce(uint32,bytes32)":"7d25a05e","oAppVersion()":"17442b70","owner()":"8da5cb5b","peers(uint32)":"bb0b6a53","quote(uint32,string,bytes,bool)":"f77e5dd3","renounceOwnership()":"715018a6","send(uint32,string,bytes,uint256)":"b4ab5dd1","setDelegate(address)":"ca5eb5e1","setPeer(uint32,bytes32)":"3400288b","transferOwnership(address)":"f2fde38b"},"id":130}