{"abi":[{"type":"constructor","inputs":[{"name":"_endpoint","type":"address","internalType":"address"},{"name":"_simulator","type":"address","internalType":"address"},{"name":"_owner","type":"address","internalType":"address"}],"stateMutability":"nonpayable"},{"type":"function","name":"buildSimulationResult","inputs":[],"outputs":[{"name":"","type":"bytes","internalType":"bytes"}],"stateMutability":"view"},{"type":"function","name":"eids","inputs":[{"name":"","type":"uint256","internalType":"uint256"}],"outputs":[{"name":"","type":"uint32","internalType":"uint32"}],"stateMutability":"view"},{"type":"function","name":"getConfig","inputs":[{"name":"_packets","type":"bytes[]","internalType":"bytes[]"},{"name":"_packetMsgValues","type":"uint256[]","internalType":"uint256[]"}],"outputs":[{"name":"","type":"bytes","internalType":"bytes"}],"stateMutability":"nonpayable"},{"type":"function","name":"getPreCrimePeers","inputs":[],"outputs":[{"name":"","type":"tuple[]","internalType":"struct PreCrimePeer[]","components":[{"name":"eid","type":"uint32","internalType":"uint32"},{"name":"preCrime","type":"bytes32","internalType":"bytes32"},{"name":"oApp","type":"bytes32","internalType":"bytes32"}]}],"stateMutability":"view"},{"type":"function","name":"maxBatchSize","inputs":[],"outputs":[{"name":"","type":"uint64","internalType":"uint64"}],"stateMutability":"view"},{"type":"function","name":"oApp","inputs":[],"outputs":[{"name":"","type":"address","internalType":"address"}],"stateMutability":"view"},{"type":"function","name":"owner","inputs":[],"outputs":[{"name":"","type":"address","internalType":"address"}],"stateMutability":"view"},{"type":"function","name":"preCrime","inputs":[{"name":"_packets","type":"bytes[]","internalType":"bytes[]"},{"name":"_packetMsgValues","type":"uint256[]","internalType":"uint256[]"},{"name":"_simulations","type":"bytes[]","internalType":"bytes[]"}],"outputs":[],"stateMutability":"nonpayable"},{"type":"function","name":"renounceOwnership","inputs":[],"outputs":[],"stateMutability":"nonpayable"},{"type":"function","name":"results","inputs":[{"name":"","type":"uint256","internalType":"uint256"}],"outputs":[{"name":"","type":"bytes","internalType":"bytes"}],"stateMutability":"view"},{"type":"function","name":"setMaxBatchSize","inputs":[{"name":"_maxBatchSize","type":"uint64","internalType":"uint64"}],"outputs":[],"stateMutability":"nonpayable"},{"type":"function","name":"setPreCrimePeers","inputs":[{"name":"_preCrimePeers","type":"tuple[]","internalType":"struct PreCrimePeer[]","components":[{"name":"eid","type":"uint32","internalType":"uint32"},{"name":"preCrime","type":"bytes32","internalType":"bytes32"},{"name":"oApp","type":"bytes32","internalType":"bytes32"}]}],"outputs":[],"stateMutability":"nonpayable"},{"type":"function","name":"simulate","inputs":[{"name":"_packets","type":"bytes[]","internalType":"bytes[]"},{"name":"_packetMsgValues","type":"uint256[]","internalType":"uint256[]"}],"outputs":[{"name":"","type":"bytes","internalType":"bytes"}],"stateMutability":"payable"},{"type":"function","name":"simulator","inputs":[],"outputs":[{"name":"","type":"address","internalType":"address"}],"stateMutability":"view"},{"type":"function","name":"transferOwnership","inputs":[{"name":"newOwner","type":"address","internalType":"address"}],"outputs":[],"stateMutability":"nonpayable"},{"type":"function","name":"version","inputs":[],"outputs":[{"name":"major","type":"uint64","internalType":"uint64"},{"name":"minor","type":"uint8","internalType":"uint8"}],"stateMutability":"pure"},{"type":"event","name":"OwnershipTransferred","inputs":[{"name":"previousOwner","type":"address","indexed":true,"internalType":"address"},{"name":"newOwner","type":"address","indexed":true,"internalType":"address"}],"anonymous":false},{"type":"error","name":"CrimeFound","inputs":[{"name":"crime","type":"bytes","internalType":"bytes"}]},{"type":"error","name":"InvalidSimulationResult","inputs":[{"name":"eid","type":"uint32","internalType":"uint32"},{"name":"reason","type":"bytes","internalType":"bytes"}]},{"type":"error","name":"OnlyOffChain","inputs":[]},{"type":"error","name":"OwnableInvalidOwner","inputs":[{"name":"owner","type":"address","internalType":"address"}]},{"type":"error","name":"OwnableUnauthorizedAccount","inputs":[{"name":"account","type":"address","internalType":"address"}]},{"type":"error","name":"PacketOversize","inputs":[{"name":"max","type":"uint256","internalType":"uint256"},{"name":"actual","type":"uint256","internalType":"uint256"}]},{"type":"error","name":"PacketUnsorted","inputs":[]},{"type":"error","name":"SimulationFailed","inputs":[{"name":"reason","type":"bytes","internalType":"bytes"}]},{"type":"error","name":"SimulationResultNotFound","inputs":[{"name":"eid","type":"uint32","internalType":"uint32"}]}],"bytecode":{"object":"0x60e06040523480156200001157600080fd5b50604051620024c6380380620024c683398101604081905262000034916200016e565b8282826001600160a01b0381166200006657604051631e4fbdf760e01b81526000600482015260240160405180910390fd5b620000718162000101565b506001600160a01b03808316608052811660a0819052604080516352ae287960e01b815290516352ae2879916004808201926020929091908290030181865afa158015620000c3573d6000803e3d6000fd5b505050506040513d601f19601f82011682018060405250810190620000e99190620001b8565b6001600160a01b031660c05250620001dd9350505050565b600080546001600160a01b038381166001600160a01b0319831681178455604051919092169283917f8be0079c531659141344cd1fd0a4f28419497f9722a3daafe3b4186f6b6457e09190a35050565b80516001600160a01b03811681146200016957600080fd5b919050565b6000806000606084860312156200018457600080fd5b6200018f8462000151565b92506200019f6020850162000151565b9150620001af6040850162000151565b90509250925092565b600060208284031215620001cb57600080fd5b620001d68262000151565b9392505050565b60805160a05160c05161228f62000237600039600081816101e901526113e30152600081816102e1015281816106e001528181610d8501528181610eef01526110cc0152600081816113470152611421015261228f6000f3fe6080604052600436106100f35760003560e01c80638da5cb5b1161008a578063bf7b5d7a11610059578063bf7b5d7a146102cf578063f0cd383614610303578063f2fde38b14610323578063f8bcddf61461034357600080fd5b80638da5cb5b1461025a5780638e9e709914610278578063afea44ef1461028d578063b9a1f5e7146102ad57600080fd5b806350dfa937116100c657806350dfa937146101c457806352ae2879146101d757806354fd4d5014610223578063715018a61461024557600080fd5b806310f9cf3a146100f85780631b0c27da1461011a5780632913daa014610150578063336859f51461018f575b600080fd5b34801561010457600080fd5b50610118610113366004611960565b610363565b005b34801561012657600080fd5b5061013a6101353660046119f9565b610560565b6040516101479190611a62565b60405180910390f35b34801561015c57600080fd5b5060005461017790600160a01b90046001600160401b031681565b6040516001600160401b039091168152602001610147565b34801561019b57600080fd5b506101af6101aa3660046119f9565b61060c565b60405163ffffffff9091168152602001610147565b61013a6101d2366004611a75565b610646565b3480156101e357600080fd5b5061020b7f000000000000000000000000000000000000000000000000000000000000000081565b6040516001600160a01b039091168152602001610147565b34801561022f57600080fd5b5060408051600281526000602082015201610147565b34801561025157600080fd5b506101186106c8565b34801561026657600080fd5b506000546001600160a01b031661020b565b34801561028457600080fd5b5061013a6106dc565b34801561029957600080fd5b506101186102a8366004611af5565b610786565b3480156102b957600080fd5b506102c26107bb565b6040516101479190611b12565b3480156102db57600080fd5b5061020b7f000000000000000000000000000000000000000000000000000000000000000081565b34801561030f57600080fd5b5061013a61031e366004611a75565b61083a565b34801561032f57600080fd5b5061011861033e366004611b71565b610a3e565b34801561034f57600080fd5b5061011861035e366004611b9a565b610a81565b3361dead1461038557604051634e5ff03360e11b815260040160405180910390fd5b60006103c58787878780806020026020016040519081016040528093929190818152602001838360200280828437600092019190915250610af192505050565b90506000826001600160401b038111156103e1576103e1611c0e565b60405190808252806020026020018201604052801561040a578160200160208202803683370190505b5090506000836001600160401b0381111561042757610427611c0e565b60405190808252806020026020018201604052801561045a57816020015b60608152602001906001900390816104455790505b50905060005b8481101561053f5736600087878481811061047d5761047d611c24565b905060200281019061048f9190611c3a565b90925090506104a2600460008385611c80565b6104ab91611caa565b60e01c8584815181106104c0576104c0611c24565b63ffffffff909216602092830291909101909101526104e28160048185611c80565b8080601f016020809104026020016040519081016040528093929190818152602001838380828437600092019190915250508651879250869150811061052a5761052a611c24565b60209081029190910101525050600101610460565b5061054a8383610bf1565b610555838383610ca7565b505050505050505050565b6003818154811061057057600080fd5b90600052602060002001600091509050805461058b90611cda565b80601f01602080910402602001604051908101604052809291908181526020018280546105b790611cda565b80156106045780601f106105d957610100808354040283529160200191610604565b820191906000526020600020905b8154815290600101906020018083116105e757829003601f168201915b505050505081565b6002818154811061061c57600080fd5b9060005260206000209060089182820401919006600402915054906101000a900463ffffffff1681565b60603361dead1461066a57604051634e5ff03360e11b815260040160405180910390fd5b60006106aa8686868680806020026020016040519081016040528093929190818152602001838360200280828437600092019190915250610af192505050565b90506106b581610cd4565b6106be81610ee8565b9695505050505050565b6106d0610ff7565b6106da6000611024565b565b60607f00000000000000000000000000000000000000000000000000000000000000006001600160a01b03166306661abd6040518163ffffffff1660e01b8152600401602060405180830381865afa15801561073c573d6000803e3d6000fd5b505050506040513d601f19601f820116820180604052508101906107609190611d14565b60405160200161077291815260200190565b604051602081830303815290604052905090565b61078e610ff7565b600080546001600160401b03909216600160a01b0267ffffffffffffffff60a01b19909216919091179055565b60606001805480602002602001604051908101604052809291908181526020016000905b828210156108315760008481526020908190206040805160608101825260038602909201805463ffffffff168352600180820154848601526002909101549183019190915290835290920191016107df565b50505050905090565b60603361dead1461085e57604051634e5ff03360e11b815260040160405180910390fd5b60008054604051600160f11b6020820152600160a01b90910460c01b6001600160c01b0319166022820152602a0160408051601f198184030181529190529050600085156108f1576108ec6108e78888888880806020026020016040519081016040528093929190818152602001838360200280828437600092019190915250610af192505050565b611074565b61096a565b6001805480602002602001604051908101604052809291908181526020016000905b828210156109655760008481526020908190206040805160608101825260038602909201805463ffffffff16835260018082015484860152600290910154918301919091529083529092019101610913565b505050505b805190915015610a345780516040516109899084908390602001611d2d565b604051602081830303815290604052925060005b8161ffff16811015610a3157838382815181106109bc576109bc611c24565b6020026020010151600001518483815181106109da576109da611c24565b6020026020010151602001518584815181106109f8576109f8611c24565b602002602001015160400151604051602001610a179493929190611d5f565b60408051601f19818403018152919052935060010161099d565b50505b5095945050505050565b610a46610ff7565b6001600160a01b038116610a7557604051631e4fbdf760e01b8152600060048201526024015b60405180910390fd5b610a7e81611024565b50565b610a89610ff7565b610a9560016000611707565b60005b81811015610aec576001838383818110610ab457610ab4611c24565b835460018101855560009485526020909420606090910292909201926003029091019050610ae28282611db0565b5050600101610a98565b505050565b6060826001600160401b03811115610b0b57610b0b611c0e565b604051908082528060200260200182016040528015610b4457816020015b610b31611728565b815260200190600190039081610b295790505b50905060005b83811015610be957366000868684818110610b6757610b67611c24565b9050602002810190610b799190611c3a565b91509150610b878282611219565b848481518110610b9957610b99611c24565b6020026020010181905250848381518110610bb657610bb6611c24565b6020026020010151848481518110610bd057610bd0611c24565b6020908102919091010151608001525050600101610b4a565b509392505050565b815115610c6d576000610c0383611074565b905060005b8151811015610c6a576000828281518110610c2557610c25611c24565b6020026020010151600001519050610c3d84826112ec565b610c615760405162cc979560e11b815263ffffffff82166004820152602401610a6c565b50600101610c08565b50505b6000610c77611343565b9050610c8382826112ec565b610aec5760405162cc979560e11b815263ffffffff82166004820152602401610a6c565b8151610cba906002906020850190611785565b508051610cce906003906020840190611834565b50505050565b6000548151600160a01b9091046001600160401b03161015610d25576000548151604051639db0860560e01b8152600160a01b9092046001600160401b031660048301526024820152604401610a6c565b805115610a7e5760008080805b8451811015610ee1576000858281518110610d4f57610d4f611c24565b60209081029190910181015180518051920151604051635a0dfe4d60e01b815263ffffffff9093166004840152602483015291507f00000000000000000000000000000000000000000000000000000000000000006001600160a01b031690635a0dfe4d90604401602060405180830381865afa158015610dd4573d6000803e3d6000fd5b505050506040513d601f19601f82011682018060405250810190610df89190611de7565b610e025750610ed9565b80515163ffffffff80871691161080610e34575080515163ffffffff8681169116148015610e34575080516020015184115b15610e52576040516350823c8560e01b815260040160405180910390fd5b80515163ffffffff8681169116141580610e7157508051602001518414155b15610e9257805180516020909101519095509350610e8f85856113cc565b92505b610e9b83611e1f565b9250826001600160401b03168160000151604001516001600160401b031614610ed7576040516350823c8560e01b815260040160405180910390fd5b505b600101610d32565b5050505050565b60606000807f00000000000000000000000000000000000000000000000000000000000000006001600160a01b03163463bd815db060e01b86604051602401610f319190611e45565b60408051601f198184030181529181526020820180516001600160e01b03166001600160e01b0319909416939093179092529051610f6f9190611f6d565b60006040518083038185875af1925050503d8060008114610fac576040519150601f19603f3d011682016040523d82523d6000602084013e610fb1565b606091505b50915091506000610fc28383611495565b9050610fcc611343565b81604051602001610fde929190611f89565b6040516020818303038152906040529350505050919050565b6000546001600160a01b031633146106da5760405163118cdaa760e01b8152336004820152602401610a6c565b600080546001600160a01b038381166001600160a01b0319831681178455604051919092169283917f8be0079c531659141344cd1fd0a4f28419497f9722a3daafe3b4186f6b6457e09190a35050565b606060005b82518110156111ce57600083828151811061109657611096611c24565b60209081029190910181015180518051920151604051635a0dfe4d60e01b815263ffffffff9093166004840152602483015291507f00000000000000000000000000000000000000000000000000000000000000006001600160a01b031690635a0dfe4d90604401602060405180830381865afa15801561111b573d6000803e3d6000fd5b505050506040513d601f19601f8201168201806040525081019061113f9190611de7565b156111c5576001805480602002602001604051908101604052809291908181526020016000905b828210156111b85760008481526020908190206040805160608101825260038602909201805463ffffffff16835260018082015484860152600290910154918301919091529083529092019101611166565b5050505092505050919050565b50600101611079565b506040805160008082526020820190925290611212565b60408051606081018252600080825260208083018290529282015282526000199092019101816111e55790505b5092915050565b611221611728565b6040518060600160405280611236858561153d565b63ffffffff16815260200161124b8585611560565b815260200161125a8585611579565b6001600160401b031690528152611271838361159c565b63ffffffff16602082015261128683836115ac565b6001600160a01b0316604082015261129e83836115be565b60608201526112ad83836115ce565b8080601f01602080910402602001604051908101604052809392919081815260200183838082843760009201919091525050505060c082015292915050565b6000805b8351811015611337578263ffffffff1684828151811061131257611312611c24565b602002602001015163ffffffff160361132f57600191505061133d565b6001016112f0565b50600090505b92915050565b60007f00000000000000000000000000000000000000000000000000000000000000006001600160a01b031663416ecebf6040518163ffffffff1660e01b8152600401602060405180830381865afa1580156113a3573d6000803e3d6000fd5b505050506040513d601f19601f820116820180604052508101906113c79190611fbb565b905090565b60405163283750ff60e21b81526001600160a01b037f00000000000000000000000000000000000000000000000000000000000000008116600483015263ffffffff84166024830152604482018390526000917f00000000000000000000000000000000000000000000000000000000000000009091169063a0dd43fc90606401602060405180830381865afa15801561146a573d6000803e3d6000fd5b505050506040513d601f19601f8201168201806040525081019061148e9190611fd8565b9392505050565b606082156114d2576040516330a65ec560e11b81526020600482015260096024820152681b9bc81c995d995c9d60ba1b6044820152606401610a6c565b638351eea760e01b6114e383611ff5565b6001600160e01b0319161461150d57816040516330a65ec560e11b8152600401610a6c9190611a62565b611527600480845161151f919061202c565b8491906115ea565b90508080602001905181019061148e919061203f565b600061154d600d60098486611c80565b61155691611caa565b60e01c9392505050565b6000611570602d600d8486611c80565b61148e916120eb565b6000611589600960018486611c80565b61159291612109565b60c01c9392505050565b600061154d6031602d8486611c80565b600061148e6115bb84846116f7565b90565b6000611570607160518486611c80565b3660006115de8360718187611c80565b915091505b9250929050565b6060816115f881601f612137565b10156116375760405162461bcd60e51b815260206004820152600e60248201526d736c6963655f6f766572666c6f7760901b6044820152606401610a6c565b6116418284612137565b845110156116855760405162461bcd60e51b8152602060048201526011602482015270736c6963655f6f75744f66426f756e647360781b6044820152606401610a6c565b6060821580156116a457604051915060008252602082016040526116ee565b6040519150601f8416801560200281840101858101878315602002848b0101015b818310156116dd5780518352602092830192016116c5565b5050858452601f01601f1916604052505b50949350505050565b6000611570605160318486611c80565b5080546000825560030290600052602060002090810190610a7e9190611886565b6040805161016081018252600061010082018181526101208301829052610140830182905282526020820181905291810182905260608082018390526080820183905260a082019290925260c0810182905260e081019190915290565b828054828255906000526020600020906007016008900481019282156118245791602002820160005b838211156117f257835183826101000a81548163ffffffff021916908363ffffffff16021790555092602001926004016020816003010492830192600103026117ae565b80156118225782816101000a81549063ffffffff02191690556004016020816003010492830192600103026117f2565b505b506118309291506118b0565b5090565b82805482825590600052602060002090810192821561187a579160200282015b8281111561187a578251829061186a908261219a565b5091602001919060010190611854565b506118309291506118c5565b5b8082111561183057805463ffffffff191681556000600182018190556002820155600301611887565b5b8082111561183057600081556001016118b1565b808211156118305760006118d982826118e2565b506001016118c5565b5080546118ee90611cda565b6000825580601f106118fe575050565b601f016020900490600052602060002090810190610a7e91906118b0565b60008083601f84011261192e57600080fd5b5081356001600160401b0381111561194557600080fd5b6020830191508360208260051b85010111156115e357600080fd5b6000806000806000806060878903121561197957600080fd5b86356001600160401b038082111561199057600080fd5b61199c8a838b0161191c565b909850965060208901359150808211156119b557600080fd5b6119c18a838b0161191c565b909650945060408901359150808211156119da57600080fd5b506119e789828a0161191c565b979a9699509497509295939492505050565b600060208284031215611a0b57600080fd5b5035919050565b60005b83811015611a2d578181015183820152602001611a15565b50506000910152565b60008151808452611a4e816020860160208601611a12565b601f01601f19169290920160200192915050565b60208152600061148e6020830184611a36565b60008060008060408587031215611a8b57600080fd5b84356001600160401b0380821115611aa257600080fd5b611aae8883890161191c565b90965094506020870135915080821115611ac757600080fd5b50611ad48782880161191c565b95989497509550505050565b6001600160401b0381168114610a7e57600080fd5b600060208284031215611b0757600080fd5b813561148e81611ae0565b602080825282518282018190526000919060409081850190868401855b82811015611b64578151805163ffffffff16855286810151878601528501518585015260609093019290850190600101611b2f565b5091979650505050505050565b600060208284031215611b8357600080fd5b81356001600160a01b038116811461148e57600080fd5b60008060208385031215611bad57600080fd5b82356001600160401b0380821115611bc457600080fd5b818501915085601f830112611bd857600080fd5b813581811115611be757600080fd5b866020606083028501011115611bfc57600080fd5b60209290920196919550909350505050565b634e487b7160e01b600052604160045260246000fd5b634e487b7160e01b600052603260045260246000fd5b6000808335601e19843603018112611c5157600080fd5b8301803591506001600160401b03821115611c6b57600080fd5b6020019150368190038213156115e357600080fd5b60008085851115611c9057600080fd5b83861115611c9d57600080fd5b5050820193919092039150565b6001600160e01b03198135818116916004851015611cd25780818660040360031b1b83161692505b505092915050565b600181811c90821680611cee57607f821691505b602082108103611d0e57634e487b7160e01b600052602260045260246000fd5b50919050565b600060208284031215611d2657600080fd5b5051919050565b60008351611d3f818460208801611a12565b60f09390931b6001600160f01b0319169190920190815260020192915050565b60008551611d71818460208a01611a12565b60e09590951b6001600160e01b031916919094019081526004810192909252602482015260440192915050565b63ffffffff81168114610a7e57600080fd5b8135611dbb81611d9e565b63ffffffff811663ffffffff198354161782555060208201356001820155604082013560028201555050565b600060208284031215611df957600080fd5b8151801515811461148e57600080fd5b634e487b7160e01b600052601160045260246000fd5b60006001600160401b03808316818103611e3b57611e3b611e09565b6001019392505050565b600060208083018184528085518083526040925060408601915060408160051b87010184880160005b83811015611f5f57888303603f1901855281518051805163ffffffff168552602080820151908601526040908101516001600160401b031690850152610140888201516060611ec48188018363ffffffff169052565b8984015191506080611ee0818901846001600160a01b03169052565b9084015160a0888101919091529084015160c08089019190915290840151915060e090611f17828901846001600160a01b03169052565b84015161010088018490529150611f3087840183611a36565b930151868403610120880152929150611f4b90508183611a36565b968901969450505090860190600101611e6e565b509098975050505050505050565b60008251611f7f818460208701611a12565b9190910192915050565b63ffffffff60e01b8360e01b16815260008251611fad816004850160208701611a12565b919091016004019392505050565b600060208284031215611fcd57600080fd5b815161148e81611d9e565b600060208284031215611fea57600080fd5b815161148e81611ae0565b805160208201516001600160e01b031980821692919060048310156120245780818460040360031b1b83161693505b505050919050565b8181038181111561133d5761133d611e09565b60006020828403121561205157600080fd5b81516001600160401b038082111561206857600080fd5b818401915084601f83011261207c57600080fd5b81518181111561208e5761208e611c0e565b604051601f8201601f19908116603f011681019083821181831017156120b6576120b6611c0e565b816040528281528760208487010111156120cf57600080fd5b6120e0836020830160208801611a12565b979650505050505050565b8035602083101561133d57600019602084900360031b1b1692915050565b6001600160c01b03198135818116916008851015611cd25760089490940360031b84901b1690921692915050565b8082018082111561133d5761133d611e09565b601f821115610aec576000816000526020600020601f850160051c810160208610156121735750805b601f850160051c820191505b818110156121925782815560010161217f565b505050505050565b81516001600160401b038111156121b3576121b3611c0e565b6121c7816121c18454611cda565b8461214a565b602080601f8311600181146121fc57600084156121e45750858301515b600019600386901b1c1916600185901b178555612192565b600085815260208120601f198616915b8281101561222b5788860151825594840194600190910190840161220c565b50858210156122495787850151600019600388901b60f8161c191681555b5050505050600190811b0190555056fea26469706673582212202263f5282248add6b629d0c845b63b4fb6910ff7999e78fae3b90f60223bdb5864736f6c63430008160033","linkReferences":{}},"methodIdentifiers":{"buildSimulationResult()":"8e9e7099","eids(uint256)":"336859f5","getConfig(bytes[],uint256[])":"f0cd3836","getPreCrimePeers()":"b9a1f5e7","maxBatchSize()":"2913daa0","oApp()":"52ae2879","owner()":"8da5cb5b","preCrime(bytes[],uint256[],bytes[])":"10f9cf3a","renounceOwnership()":"715018a6","results(uint256)":"1b0c27da","setMaxBatchSize(uint64)":"afea44ef","setPreCrimePeers((uint32,bytes32,bytes32)[])":"f8bcddf6","simulate(bytes[],uint256[])":"50dfa937","simulator()":"bf7b5d7a","transferOwnership(address)":"f2fde38b","version()":"54fd4d50"},"id":131}