{"abi":[{"type":"constructor","inputs":[{"name":"_endpoint","type":"address","internalType":"address"},{"name":"_receiveUln301","type":"address","internalType":"address"},{"name":"_messageLibs","type":"address[]","internalType":"address[]"},{"name":"_priceFeed","type":"address","internalType":"address"},{"name":"_roleAdmin","type":"address","internalType":"address"},{"name":"_admins","type":"address[]","internalType":"address[]"}],"stateMutability":"nonpayable"},{"type":"function","name":"DEFAULT_ADMIN_ROLE","inputs":[],"outputs":[{"name":"","type":"bytes32","internalType":"bytes32"}],"stateMutability":"view"},{"type":"function","name":"allowlistSize","inputs":[],"outputs":[{"name":"","type":"uint64","internalType":"uint64"}],"stateMutability":"view"},{"type":"function","name":"assignJob","inputs":[{"name":"_dstEid","type":"uint32","internalType":"uint32"},{"name":"_sender","type":"address","internalType":"address"},{"name":"_calldataSize","type":"uint256","internalType":"uint256"},{"name":"_options","type":"bytes","internalType":"bytes"}],"outputs":[{"name":"fee","type":"uint256","internalType":"uint256"}],"stateMutability":"nonpayable"},{"type":"function","name":"assignJob","inputs":[{"name":"_sender","type":"address","internalType":"address"},{"name":"_options","type":"bytes","internalType":"bytes"}],"outputs":[{"name":"fee","type":"uint256","internalType":"uint256"}],"stateMutability":"nonpayable"},{"type":"function","name":"compose302","inputs":[{"name":"_from","type":"address","internalType":"address"},{"name":"_to","type":"address","internalType":"address"},{"name":"_guid","type":"bytes32","internalType":"bytes32"},{"name":"_index","type":"uint16","internalType":"uint16"},{"name":"_message","type":"bytes","internalType":"bytes"},{"name":"_extraData","type":"bytes","internalType":"bytes"},{"name":"_gasLimit","type":"uint256","internalType":"uint256"}],"outputs":[],"stateMutability":"payable"},{"type":"function","name":"defaultMultiplierBps","inputs":[],"outputs":[{"name":"","type":"uint16","internalType":"uint16"}],"stateMutability":"view"},{"type":"function","name":"dstConfig","inputs":[{"name":"dstEid","type":"uint32","internalType":"uint32"}],"outputs":[{"name":"lzReceiveBaseGas","type":"uint64","internalType":"uint64"},{"name":"multiplierBps","type":"uint16","internalType":"uint16"},{"name":"floorMarginUSD","type":"uint128","internalType":"uint128"},{"name":"nativeCap","type":"uint128","internalType":"uint128"},{"name":"lzComposeBaseGas","type":"uint64","internalType":"uint64"}],"stateMutability":"view"},{"type":"function","name":"endpoint","inputs":[],"outputs":[{"name":"","type":"address","internalType":"address"}],"stateMutability":"view"},{"type":"function","name":"execute301","inputs":[{"name":"_packet","type":"bytes","internalType":"bytes"},{"name":"_gasLimit","type":"uint256","internalType":"uint256"}],"outputs":[],"stateMutability":"nonpayable"},{"type":"function","name":"execute302","inputs":[{"name":"_executionParams","type":"tuple","internalType":"struct IExecutor.ExecutionParams","components":[{"name":"receiver","type":"address","internalType":"address"},{"name":"origin","type":"tuple","internalType":"struct Origin","components":[{"name":"srcEid","type":"uint32","internalType":"uint32"},{"name":"sender","type":"bytes32","internalType":"bytes32"},{"name":"nonce","type":"uint64","internalType":"uint64"}]},{"name":"guid","type":"bytes32","internalType":"bytes32"},{"name":"message","type":"bytes","internalType":"bytes"},{"name":"extraData","type":"bytes","internalType":"bytes"},{"name":"gasLimit","type":"uint256","internalType":"uint256"}]}],"outputs":[],"stateMutability":"payable"},{"type":"function","name":"getFee","inputs":[{"name":"_dstEid","type":"uint32","internalType":"uint32"},{"name":"_sender","type":"address","internalType":"address"},{"name":"_calldataSize","type":"uint256","internalType":"uint256"},{"name":"_options","type":"bytes","internalType":"bytes"}],"outputs":[{"name":"fee","type":"uint256","internalType":"uint256"}],"stateMutability":"view"},{"type":"function","name":"getFee","inputs":[{"name":"_sender","type":"address","internalType":"address"},{"name":"_options","type":"bytes","internalType":"bytes"}],"outputs":[{"name":"fee","type":"uint256","internalType":"uint256"}],"stateMutability":"view"},{"type":"function","name":"getRoleAdmin","inputs":[{"name":"role","type":"bytes32","internalType":"bytes32"}],"outputs":[{"name":"","type":"bytes32","internalType":"bytes32"}],"stateMutability":"view"},{"type":"function","name":"getSupportedOptionTypes","inputs":[{"name":"_eid","type":"uint32","internalType":"uint32"}],"outputs":[{"name":"","type":"uint8[]","internalType":"uint8[]"}],"stateMutability":"view"},{"type":"function","name":"grantRole","inputs":[{"name":"role","type":"bytes32","internalType":"bytes32"},{"name":"account","type":"address","internalType":"address"}],"outputs":[],"stateMutability":"nonpayable"},{"type":"function","name":"hasAcl","inputs":[{"name":"_sender","type":"address","internalType":"address"}],"outputs":[{"name":"","type":"bool","internalType":"bool"}],"stateMutability":"view"},{"type":"function","name":"hasRole","inputs":[{"name":"role","type":"bytes32","internalType":"bytes32"},{"name":"account","type":"address","internalType":"address"}],"outputs":[{"name":"","type":"bool","internalType":"bool"}],"stateMutability":"view"},{"type":"function","name":"localEidV2","inputs":[],"outputs":[{"name":"","type":"uint32","internalType":"uint32"}],"stateMutability":"view"},{"type":"function","name":"nativeDrop","inputs":[{"name":"_origin","type":"tuple","internalType":"struct Origin","components":[{"name":"srcEid","type":"uint32","internalType":"uint32"},{"name":"sender","type":"bytes32","internalType":"bytes32"},{"name":"nonce","type":"uint64","internalType":"uint64"}]},{"name":"_dstEid","type":"uint32","internalType":"uint32"},{"name":"_oapp","type":"address","internalType":"address"},{"name":"_nativeDropParams","type":"tuple[]","internalType":"struct IExecutor.NativeDropParams[]","components":[{"name":"receiver","type":"address","internalType":"address"},{"name":"amount","type":"uint256","internalType":"uint256"}]},{"name":"_nativeDropGasLimit","type":"uint256","internalType":"uint256"}],"outputs":[],"stateMutability":"payable"},{"type":"function","name":"nativeDropAndExecute301","inputs":[{"name":"_origin","type":"tuple","internalType":"struct Origin","components":[{"name":"srcEid","type":"uint32","internalType":"uint32"},{"name":"sender","type":"bytes32","internalType":"bytes32"},{"name":"nonce","type":"uint64","internalType":"uint64"}]},{"name":"_nativeDropParams","type":"tuple[]","internalType":"struct IExecutor.NativeDropParams[]","components":[{"name":"receiver","type":"address","internalType":"address"},{"name":"amount","type":"uint256","internalType":"uint256"}]},{"name":"_nativeDropGasLimit","type":"uint256","internalType":"uint256"},{"name":"_packet","type":"bytes","internalType":"bytes"},{"name":"_gasLimit","type":"uint256","internalType":"uint256"}],"outputs":[],"stateMutability":"payable"},{"type":"function","name":"nativeDropAndExecute302","inputs":[{"name":"_nativeDropParams","type":"tuple[]","internalType":"struct IExecutor.NativeDropParams[]","components":[{"name":"receiver","type":"address","internalType":"address"},{"name":"amount","type":"uint256","internalType":"uint256"}]},{"name":"_nativeDropGasLimit","type":"uint256","internalType":"uint256"},{"name":"_executionParams","type":"tuple","internalType":"struct IExecutor.ExecutionParams","components":[{"name":"receiver","type":"address","internalType":"address"},{"name":"origin","type":"tuple","internalType":"struct Origin","components":[{"name":"srcEid","type":"uint32","internalType":"uint32"},{"name":"sender","type":"bytes32","internalType":"bytes32"},{"name":"nonce","type":"uint64","internalType":"uint64"}]},{"name":"guid","type":"bytes32","internalType":"bytes32"},{"name":"message","type":"bytes","internalType":"bytes"},{"name":"extraData","type":"bytes","internalType":"bytes"},{"name":"gasLimit","type":"uint256","internalType":"uint256"}]}],"outputs":[],"stateMutability":"payable"},{"type":"function","name":"paused","inputs":[],"outputs":[{"name":"","type":"bool","internalType":"bool"}],"stateMutability":"view"},{"type":"function","name":"priceFeed","inputs":[],"outputs":[{"name":"","type":"address","internalType":"address"}],"stateMutability":"view"},{"type":"function","name":"receiveUln301","inputs":[],"outputs":[{"name":"","type":"address","internalType":"address"}],"stateMutability":"view"},{"type":"function","name":"renounceRole","inputs":[{"name":"","type":"bytes32","internalType":"bytes32"},{"name":"","type":"address","internalType":"address"}],"outputs":[],"stateMutability":"pure"},{"type":"function","name":"revokeRole","inputs":[{"name":"role","type":"bytes32","internalType":"bytes32"},{"name":"account","type":"address","internalType":"address"}],"outputs":[],"stateMutability":"nonpayable"},{"type":"function","name":"setDefaultMultiplierBps","inputs":[{"name":"_multiplierBps","type":"uint16","internalType":"uint16"}],"outputs":[],"stateMutability":"nonpayable"},{"type":"function","name":"setDstConfig","inputs":[{"name":"_params","type":"tuple[]","internalType":"struct IExecutor.DstConfigParam[]","components":[{"name":"dstEid","type":"uint32","internalType":"uint32"},{"name":"lzReceiveBaseGas","type":"uint64","internalType":"uint64"},{"name":"lzComposeBaseGas","type":"uint64","internalType":"uint64"},{"name":"multiplierBps","type":"uint16","internalType":"uint16"},{"name":"floorMarginUSD","type":"uint128","internalType":"uint128"},{"name":"nativeCap","type":"uint128","internalType":"uint128"}]}],"outputs":[],"stateMutability":"nonpayable"},{"type":"function","name":"setPaused","inputs":[{"name":"_paused","type":"bool","internalType":"bool"}],"outputs":[],"stateMutability":"nonpayable"},{"type":"function","name":"setPriceFeed","inputs":[{"name":"_priceFeed","type":"address","internalType":"address"}],"outputs":[],"stateMutability":"nonpayable"},{"type":"function","name":"setSupportedOptionTypes","inputs":[{"name":"_eid","type":"uint32","internalType":"uint32"},{"name":"_optionTypes","type":"uint8[]","internalType":"uint8[]"}],"outputs":[],"stateMutability":"nonpayable"},{"type":"function","name":"setWorkerFeeLib","inputs":[{"name":"_workerFeeLib","type":"address","internalType":"address"}],"outputs":[],"stateMutability":"nonpayable"},{"type":"function","name":"supportsInterface","inputs":[{"name":"interfaceId","type":"bytes4","internalType":"bytes4"}],"outputs":[{"name":"","type":"bool","internalType":"bool"}],"stateMutability":"view"},{"type":"function","name":"withdrawFee","inputs":[{"name":"_lib","type":"address","internalType":"address"},{"name":"_to","type":"address","internalType":"address"},{"name":"_amount","type":"uint256","internalType":"uint256"}],"outputs":[],"stateMutability":"nonpayable"},{"type":"function","name":"withdrawToken","inputs":[{"name":"_token","type":"address","internalType":"address"},{"name":"_to","type":"address","internalType":"address"},{"name":"_amount","type":"uint256","internalType":"uint256"}],"outputs":[],"stateMutability":"nonpayable"},{"type":"function","name":"workerFeeLib","inputs":[],"outputs":[{"name":"","type":"address","internalType":"address"}],"stateMutability":"view"},{"type":"event","name":"DstConfigSet","inputs":[{"name":"params","type":"tuple[]","indexed":false,"internalType":"struct IExecutor.DstConfigParam[]","components":[{"name":"dstEid","type":"uint32","internalType":"uint32"},{"name":"lzReceiveBaseGas","type":"uint64","internalType":"uint64"},{"name":"lzComposeBaseGas","type":"uint64","internalType":"uint64"},{"name":"multiplierBps","type":"uint16","internalType":"uint16"},{"name":"floorMarginUSD","type":"uint128","internalType":"uint128"},{"name":"nativeCap","type":"uint128","internalType":"uint128"}]}],"anonymous":false},{"type":"event","name":"NativeDropApplied","inputs":[{"name":"origin","type":"tuple","indexed":false,"internalType":"struct Origin","components":[{"name":"srcEid","type":"uint32","internalType":"uint32"},{"name":"sender","type":"bytes32","internalType":"bytes32"},{"name":"nonce","type":"uint64","internalType":"uint64"}]},{"name":"dstEid","type":"uint32","indexed":false,"internalType":"uint32"},{"name":"oapp","type":"address","indexed":false,"internalType":"address"},{"name":"params","type":"tuple[]","indexed":false,"internalType":"struct IExecutor.NativeDropParams[]","components":[{"name":"receiver","type":"address","internalType":"address"},{"name":"amount","type":"uint256","internalType":"uint256"}]},{"name":"success","type":"bool[]","indexed":false,"internalType":"bool[]"}],"anonymous":false},{"type":"event","name":"Paused","inputs":[{"name":"account","type":"address","indexed":false,"internalType":"address"}],"anonymous":false},{"type":"event","name":"RoleAdminChanged","inputs":[{"name":"role","type":"bytes32","indexed":true,"internalType":"bytes32"},{"name":"previousAdminRole","type":"bytes32","indexed":true,"internalType":"bytes32"},{"name":"newAdminRole","type":"bytes32","indexed":true,"internalType":"bytes32"}],"anonymous":false},{"type":"event","name":"RoleGranted","inputs":[{"name":"role","type":"bytes32","indexed":true,"internalType":"bytes32"},{"name":"account","type":"address","indexed":true,"internalType":"address"},{"name":"sender","type":"address","indexed":true,"internalType":"address"}],"anonymous":false},{"type":"event","name":"RoleRevoked","inputs":[{"name":"role","type":"bytes32","indexed":true,"internalType":"bytes32"},{"name":"account","type":"address","indexed":true,"internalType":"address"},{"name":"sender","type":"address","indexed":true,"internalType":"address"}],"anonymous":false},{"type":"event","name":"SetDefaultMultiplierBps","inputs":[{"name":"multiplierBps","type":"uint16","indexed":false,"internalType":"uint16"}],"anonymous":false},{"type":"event","name":"SetPriceFeed","inputs":[{"name":"priceFeed","type":"address","indexed":false,"internalType":"address"}],"anonymous":false},{"type":"event","name":"SetSupportedOptionTypes","inputs":[{"name":"dstEid","type":"uint32","indexed":false,"internalType":"uint32"},{"name":"optionTypes","type":"uint8[]","indexed":false,"internalType":"uint8[]"}],"anonymous":false},{"type":"event","name":"SetWorkerLib","inputs":[{"name":"workerLib","type":"address","indexed":false,"internalType":"address"}],"anonymous":false},{"type":"event","name":"Unpaused","inputs":[{"name":"account","type":"address","indexed":false,"internalType":"address"}],"anonymous":false},{"type":"event","name":"Withdraw","inputs":[{"name":"lib","type":"address","indexed":false,"internalType":"address"},{"name":"to","type":"address","indexed":false,"internalType":"address"},{"name":"amount","type":"uint256","indexed":false,"internalType":"uint256"}],"anonymous":false},{"type":"error","name":"AccessControlBadConfirmation","inputs":[]},{"type":"error","name":"AccessControlUnauthorizedAccount","inputs":[{"name":"account","type":"address","internalType":"address"},{"name":"neededRole","type":"bytes32","internalType":"bytes32"}]},{"type":"error","name":"AddressEmptyCode","inputs":[{"name":"target","type":"address","internalType":"address"}]},{"type":"error","name":"AddressInsufficientBalance","inputs":[{"name":"account","type":"address","internalType":"address"}]},{"type":"error","name":"EnforcedPause","inputs":[]},{"type":"error","name":"ExpectedPause","inputs":[]},{"type":"error","name":"FailedInnerCall","inputs":[]},{"type":"error","name":"ReentrancyGuardReentrantCall","inputs":[]},{"type":"error","name":"SafeERC20FailedOperation","inputs":[{"name":"token","type":"address","internalType":"address"}]},{"type":"error","name":"Transfer_NativeFailed","inputs":[{"name":"_to","type":"address","internalType":"address"},{"name":"_value","type":"uint256","internalType":"uint256"}]},{"type":"error","name":"Transfer_ToAddressIsZero","inputs":[]},{"type":"error","name":"Worker_NotAllowed","inputs":[]},{"type":"error","name":"Worker_OnlyMessageLib","inputs":[]},{"type":"error","name":"Worker_RoleRenouncingDisabled","inputs":[]}],"bytecode":{"object":"0x60806040523480156200001157600080fd5b50604051620032763803806200327683398101604081905262000034916200046f565b6001805460ff61ffff60e81b01191661017760ed1b179055600280546001600160a01b0319166001600160a01b038581169190911790915584908490612ee090859085908216156200008f576200008d60008362000226565b505b60005b8551811015620000f457620000ea7f724aface199fe5bed93ae8508474576a9adf3dc443b2c451842a2242919f19de878381518110620000d657620000d662000523565b60200260200101516200022660201b60201c565b5060010162000092565b5060005b815181101562000146576200013c7fa49807205ce4d355092ef5a8a18f56e8913cf4a201fbe287825b095693c21775838381518110620000d657620000d662000523565b50600101620000f8565b505060016004908155600680546001600160a01b0319166001600160a01b038d169081179091556040805163416ecebf60e01b8152905191965063416ecebf95508083019450602093509091908290030181865afa158015620001ad573d6000803e3d6000fd5b505050506040513d601f19601f82011682018060405250810190620001d3919062000539565b6006805463ffffffff92909216600160a01b0263ffffffff60a01b199092169190911790555050600780546001600160a01b039094166001600160a01b03199094169390931790925550620005a5915050565b60007f74845de37cfabd357633214b47fa91ccd19b05b7c5a08ac22c187f811fb62bca831480156200027957506000838152602081815260408083206001600160a01b038616845290915290205460ff16155b15620002c65760018054601590620002a190600160a81b90046001600160401b031662000568565b91906101000a8154816001600160401b0302191690836001600160401b031602179055505b620002d28383620002de565b50600190505b92915050565b6000828152602081815260408083206001600160a01b038516845290915281205460ff1662000383576000838152602081815260408083206001600160a01b03861684529091529020805460ff191660011790556200033a3390565b6001600160a01b0316826001600160a01b0316847f2f8788117e7eff1d82e926ec794901d17c78024a50270940304540a733656f0d60405160405180910390a4506001620002d8565b506000620002d8565b80516001600160a01b0381168114620003a457600080fd5b919050565b634e487b7160e01b600052604160045260246000fd5b600082601f830112620003d157600080fd5b815160206001600160401b0380831115620003f057620003f0620003a9565b8260051b604051601f19603f83011681018181108482111715620004185762000418620003a9565b60405293845260208187018101949081019250878511156200043957600080fd5b6020870191505b84821015620004645762000454826200038c565b8352918301919083019062000440565b979650505050505050565b60008060008060008060c087890312156200048957600080fd5b62000494876200038c565b9550620004a4602088016200038c565b60408801519095506001600160401b0380821115620004c257600080fd5b620004d08a838b01620003bf565b9550620004e060608a016200038c565b9450620004f060808a016200038c565b935060a08901519150808211156200050757600080fd5b506200051689828a01620003bf565b9150509295509295509295565b634e487b7160e01b600052603260045260246000fd5b6000602082840312156200054c57600080fd5b815163ffffffff811681146200056157600080fd5b9392505050565b60006001600160401b038281166002600160401b031981016200059b57634e487b7160e01b600052601160045260246000fd5b6001019392505050565b612cc180620005b56000396000f3fe60806040526004361061020e5760003560e01c8063724e78da11610118578063c358de0a116100a0578063cd88b9031161006f578063cd88b903146106af578063cfc32570146106cf578063d2ae2104146106e2578063d547741f14610721578063e395eb5c1461074157600080fd5b8063c358de0a1461062a578063c416aa511461064a578063c7b2370b1461066f578063c8f8dcd11461068f57600080fd5b806391d14854116100e757806391d14854146105065780639e94496514610526578063a217fddf146105d5578063c015bb7d146105ea578063c2803b2c1461060a57600080fd5b8063724e78da146104a0578063741bef1a146104c05780637cd44734146104e05780638624ba07146104f357600080fd5b80633146646a1161019b578063475b6d9e1161016a578063475b6d9e146103fd5780635c975abb146104105780635e280f1114610428578063709eb66414610460578063717e8a421461048057600080fd5b80633146646a1461038a57806336568abe146103aa5780633927c075146103ca5780633d85ac33146103dd57600080fd5b806316c38b3c116101e257806316c38b3c146102bf578063248a9ca3146102df57806326e67a371461031d5780632de113761461034a5780632f2ff15d1461036a57600080fd5b8062bf2e801461021357806301e336671461024d57806301ffc9a71461026f5780631095b6d71461029f575b600080fd5b34801561021f57600080fd5b5060015461023590600160e81b900461ffff1681565b60405161ffff90911681526020015b60405180910390f35b34801561025957600080fd5b5061026d610268366004611eb0565b61077a565b005b34801561027b57600080fd5b5061028f61028a366004611eec565b6107a3565b6040519015158152602001610244565b3480156102ab57600080fd5b5061026d6102ba366004611eb0565b6107da565b3480156102cb57600080fd5b5061026d6102da366004611f24565b6108ed565b3480156102eb57600080fd5b5061030f6102fa366004611f41565b60009081526020819052604090206001015490565b604051908152602001610244565b34801561032957600080fd5b5061033d610338366004611f6e565b610912565b6040516102449190611f89565b34801561035657600080fd5b5061028f610365366004611fd0565b610999565b34801561037657600080fd5b5061026d610385366004611feb565b610a30565b34801561039657600080fd5b5061026d6103a536600461205f565b610a55565b3480156103b657600080fd5b5061026d6103c5366004611feb565b610ae5565b61026d6103d8366004612106565b610afe565b3480156103e957600080fd5b5061026d6103f8366004612247565b610bb9565b61026d61040b366004612362565b610d30565b34801561041c57600080fd5b5060015460ff1661028f565b34801561043457600080fd5b50600654610448906001600160a01b031681565b6040516001600160a01b039091168152602001610244565b34801561046c57600080fd5b5061030f61047b3660046123e0565b610d72565b34801561048c57600080fd5b5061030f61049b3660046123e0565b610e79565b3480156104ac57600080fd5b5061026d6104bb366004611fd0565b610fa5565b3480156104cc57600080fd5b50600254610448906001600160a01b031681565b61026d6104ee36600461244e565b61100b565b61026d610501366004612513565b6110b6565b34801561051257600080fd5b5061028f610521366004611feb565b6111c1565b34801561053257600080fd5b50610592610541366004611f6e565b600560205260009081526040902080546001909101546001600160401b038083169261ffff600160401b820416926001600160801b03600160501b90920482169291811691600160801b9091041685565b604080516001600160401b03968716815261ffff90951660208601526001600160801b03938416908501529116606083015291909116608082015260a001610244565b3480156105e157600080fd5b5061030f600081565b3480156105f657600080fd5b5061030f610605366004612585565b6111ea565b34801561061657600080fd5b50600754610448906001600160a01b031681565b34801561063657600080fd5b5061026d6106453660046125d7565b611312565b34801561065657600080fd5b506001546104489061010090046001600160a01b031681565b34801561067b57600080fd5b5061026d61068a366004611fd0565b61137a565b34801561069b57600080fd5b5061030f6106aa366004612585565b6113e8565b3480156106bb57600080fd5b5061026d6106ca3660046125f2565b6114e3565b61026d6106dd366004612677565b61151b565b3480156106ee57600080fd5b5060015461070990600160a81b90046001600160401b031681565b6040516001600160401b039091168152602001610244565b34801561072d57600080fd5b5061026d61073c366004611feb565b6115de565b34801561074d57600080fd5b5060065461076590600160a01b900463ffffffff1681565b60405163ffffffff9091168152602001610244565b600080516020612c6c83398151915261079281611603565b61079d848484611610565b50505050565b60006001600160e01b03198216637965db0b60e01b14806107d457506301ffc9a760e01b6001600160e01b03198316145b92915050565b600080516020612c6c8339815191526107f281611603565b61081c7f724aface199fe5bed93ae8508474576a9adf3dc443b2c451842a2242919f19de856111c1565b61083957604051635ee08b9760e01b815260040160405180910390fd5b604051637ecdf29160e11b81526001600160a01b0384811660048301526024820184905285169063fd9be52290604401600060405180830381600087803b15801561088357600080fd5b505af1158015610897573d6000803e3d6000fd5b5050604080516001600160a01b038089168252871660208201529081018590527f9b1bfa7fa9ee420a16e124f794c35ac9f90472acc99140eb2f6447c714cad8eb9250606001905060405180910390a150505050565b60006108f881611603565b811561090a57610906611638565b5050565b61090661168c565b63ffffffff811660009081526003602090815260409182902080548351818402810184019094528084526060939283018282801561098d57602002820191906000526020600020906000905b825461010083900a900460ff1681526020600192830181810494850194909303909202910180841161095e5790505b50505050509050919050565b60006109c57f4270fae16c6d150d00e80b689daca99e8073b1838ff2b6063a37be9d851283e4836111c1565b156109d257506000919050565b600154600160a81b90046001600160401b03161580610a165750610a167f74845de37cfabd357633214b47fa91ccd19b05b7c5a08ac22c187f811fb62bca836111c1565b15610a2357506001919050565b506000919050565b919050565b600082815260208190526040902060010154610a4b81611603565b61079d83836116c5565b600080516020612c6c833981519152610a6d81611603565b610a7561175b565b600754604051631cca20df60e31b81526001600160a01b039091169063e65106f890610aa9908790879087906004016126dc565b600060405180830381600087803b158015610ac357600080fd5b505af1158015610ad7573d6000803e3d6000fd5b5050505061079d6001600455565b60405163dec9f03160e01b815260040160405180910390fd5b600080516020612c6c833981519152610b1681611603565b610b1e61175b565b610b3e88610b2c8686611785565b610b3687876117a8565b8a8a8a6117c1565b50600754604051631cca20df60e31b81526001600160a01b039091169063e65106f890610b73908790879087906004016126dc565b600060405180830381600087803b158015610b8d57600080fd5b505af1158015610ba1573d6000803e3d6000fd5b50505050610baf6001600455565b5050505050505050565b600080516020612c6c833981519152610bd181611603565b60005b8251811015610cf4576000838281518110610bf157610bf1612700565b6020908102919091018101516040805160a08082018352838501516001600160401b03908116835260608086015161ffff9081168589019081526080808901516001600160801b03908116888a01908152968a01518116948801948552888a01518616918801918252985163ffffffff1660009081526005909a529690982094518554985194518816600160501b026fffffffffffffffffffffffffffffffff60501b1995909216600160401b0269ffffffffffffffffffff1990991690841617979097179290921695909517825551600191820180549351909516600160801b026001600160c01b031990931693169290921717909155919091019050610bd4565b507fb99f6de5e22c60c178b03bfacf2daeb4b6089f5b37e0fe2c48a5d5141191fc5382604051610d249190612716565b60405180910390a15050565b600080516020612c6c833981519152610d4881611603565b610d5061175b565b610d5e8787878787876117c1565b50610d696001600455565b50505050505050565b600084610d7e81610999565b610d9b57604051634ab5ebcd60e01b815260040160405180910390fd5b610da3611928565b6040805160a0810182526002546001600160a01b03908116825263ffffffff8a1660208084018290528a831684860152606084018a905260015461ffff600160e81b8204166080860152600092835260059091529084902093516321a7700b60e11b815292936101009091049091169163434ee01691610e2c918591908a908a90600401612803565b602060405180830381865afa158015610e49573d6000803e3d6000fd5b505050506040513d601f19601f82011682018060405250810190610e6d919061286b565b98975050505050505050565b60007f724aface199fe5bed93ae8508474576a9adf3dc443b2c451842a2242919f19de610ea581611603565b85610eaf81610999565b610ecc57604051634ab5ebcd60e01b815260040160405180910390fd5b6040805160a0810182526002546001600160a01b03908116825263ffffffff8b1660208084018290528b831684860152606084018b905260015461ffff600160e81b820416608086015260009283526005909152908490209351632b377bb160e11b815292936101009091049091169163566ef76291610f55918591908b908b90600401612803565b6020604051808303816000875af1158015610f74573d6000803e3d6000fd5b505050506040513d601f19601f82011682018060405250810190610f98919061286b565b9998505050505050505050565b600080516020612c6c833981519152610fbd81611603565b600280546001600160a01b0319166001600160a01b0384169081179091556040519081527ff724a45d041687842411f2b977ef22ab8f43c8f1104f4592b42a00f9b34a643d90602001610d24565b600080516020612c6c83398151915261102381611603565b61102b61175b565b6006546040516391d20fa160e01b81526001600160a01b03909116906391d20fa1908490349061106d908f908f908f908f908f908f908f908f90600401612884565b6000604051808303818589803b15801561108657600080fd5b5088f115801561109a573d6000803e3d6000fd5b5050505050506110aa6001600455565b50505050505050505050565b600080516020612c6c8339815191526110ce81611603565b6110d661175b565b600654600090611104906020850190600160a01b900463ffffffff166110fc8287611fd0565b8989896117c1565b9050600061111282346128fa565b6006549091506001600160a01b0316630c0c389e60e0860135836020880161113a818a611fd0565b60808a013561114c60a08c018c61290d565b61115960c08e018e61290d565b6040518a63ffffffff1660e01b815260040161117b979695949392919061298c565b6000604051808303818589803b15801561119457600080fd5b5088f11580156111a8573d6000803e3d6000fd5b50505050505050506111ba6001600455565b5050505050565b6000918252602082815260408084206001600160a01b0393909316845291905290205460ff1690565b60007f724aface199fe5bed93ae8508474576a9adf3dc443b2c451842a2242919f19de61121681611603565b8461122081610999565b61123d57604051634ab5ebcd60e01b815260040160405180910390fd5b604080516060810182526002546001600160a01b039081168252888116602080840191909152600154600160e81b810461ffff1684860152600654600160a01b900463ffffffff16600090815260059092529084902093516319400de160e21b81529293610100909104909116916365003784916112c4918591908b908b906004016129e2565b6020604051808303816000875af11580156112e3573d6000803e3d6000fd5b505050506040513d601f19601f82011682018060405250810190611307919061286b565b979650505050505050565b600080516020612c6c83398151915261132a81611603565b6001805461ffff60e81b1916600160e81b61ffff8516908102919091179091556040519081527f7af0ac740036ffb1c97b03697859d729e80a44ae5030543d64971c313565ab4d90602001610d24565b600080516020612c6c83398151915261139281611603565b60018054610100600160a81b0319166101006001600160a01b038516908102919091179091556040519081527f1399be28223800f8669b3ba5f8721d9fc16fc4e8d0bbf98378791c8c5a3015e090602001610d24565b6000836113f481610999565b61141157604051634ab5ebcd60e01b815260040160405180910390fd5b604080516060810182526002546001600160a01b039081168252878116602080840191909152600154600160e81b810461ffff1684860152600654600160a01b900463ffffffff16600090815260059092529084902093516319be3d4f60e11b815292936101009091049091169163337c7a9e91611498918591908a908a906004016129e2565b602060405180830381865afa1580156114b5573d6000803e3d6000fd5b505050506040513d601f19601f820116820180604052508101906114d9919061286b565b9695505050505050565b600080516020612c6c8339815191526114fb81611603565b63ffffffff841660009081526003602052604090206111ba908484611ddb565b600080516020612c6c83398151915261153381611603565b61153b61175b565b6006546001600160a01b0316630c0c389e60e084013534602086016115608188611fd0565b608088013561157260a08a018a61290d565b61157f60c08c018c61290d565b6040518a63ffffffff1660e01b81526004016115a1979695949392919061298c565b6000604051808303818589803b1580156115ba57600080fd5b5088f11580156115ce573d6000803e3d6000fd5b5050505050506109066001600455565b6000828152602081905260409020600101546115f981611603565b61079d838361194e565b61160d81336119d8565b50565b6001600160a01b03831661162d576116288282611a16565b505050565b611628838383611ac3565b611640611928565b6001805460ff1916811790557f62e78cea01bee320cd4e420270b5ea74000d11b0c9f74754ebdbfc544b05a258335b6040516001600160a01b03909116815260200160405180910390a1565b611694611afe565b6001805460ff191690557f5db9ee0a495bf2e6ff9c91a7834c1ba4fdd244a5e8aa4e537bd38aeae4b073aa3361166f565b60007f74845de37cfabd357633214b47fa91ccd19b05b7c5a08ac22c187f811fb62bca831480156116fd57506116fb83836111c1565b155b15611747576001805460159061172290600160a81b90046001600160401b0316612a32565b91906101000a8154816001600160401b0302191690836001600160401b031602179055505b6117518383611b21565b5060019392505050565b60026004540361177e57604051633ee5aeb560e01b815260040160405180910390fd5b6002600455565b60006117956031602d8486612a58565b61179e91612a82565b60e01c9392505050565b60006117ba6117b78484611bb3565b90565b9392505050565b600080836001600160401b038111156117dc576117dc612199565b604051908082528060200260200182016040528015611805578160200160208202803683370190505b50905060005b848110156118db57600086868381811061182757611827612700565b90506040020180360381019061183d9190612ab2565b9050600081600001516001600160a01b031682602001518790604051600060405180830381858888f193505050503d8060008114611897576040519150601f19603f3d011682016040523d82523d6000602084013e61189c565b606091505b50509050808484815181106118b3576118b3612700565b9115156020928302919091018201528201516118cf9086612b08565b9450505060010161180b565b507f1f48172553121d8bf273ce457a5a3dd180d464e0add3e0143045b7fa039c346888888888888660405161191596959493929190612b59565b60405180910390a1509695505050505050565b60015460ff161561194c5760405163d93c066560e01b815260040160405180910390fd5b565b60007f74845de37cfabd357633214b47fa91ccd19b05b7c5a08ac22c187f811fb62bca83148015611984575061198483836111c1565b156119ce57600180546015906119a990600160a81b90046001600160401b0316612bde565b91906101000a8154816001600160401b0302191690836001600160401b031602179055505b6117518383611bcc565b6119e282826111c1565b6109065760405163e2517d3f60e01b81526001600160a01b0382166004820152602481018390526044015b60405180910390fd5b6001600160a01b038216611a3d576040516306b7a93160e41b815260040160405180910390fd5b6000826001600160a01b03168260405160006040518083038185875af1925050503d8060008114611a8a576040519150601f19603f3d011682016040523d82523d6000602084013e611a8f565b606091505b505090508061162857604051631196f20d60e21b81526001600160a01b038416600482015260248101839052604401611a0d565b6001600160a01b038216611aea576040516306b7a93160e41b815260040160405180910390fd5b6116286001600160a01b0384168383611c37565b60015460ff1661194c57604051638dfc202b60e01b815260040160405180910390fd5b6000611b2d83836111c1565b611bab576000838152602081815260408083206001600160a01b03861684529091529020805460ff19166001179055611b633390565b6001600160a01b0316826001600160a01b0316847f2f8788117e7eff1d82e926ec794901d17c78024a50270940304540a733656f0d60405160405180910390a45060016107d4565b5060006107d4565b6000611bc3605160318486612a58565b6117ba91612c01565b6000611bd883836111c1565b15611bab576000838152602081815260408083206001600160a01b0386168085529252808320805460ff1916905551339286917ff6391f5c32d9c69d2a47ea670b442974b53935d1edc7fd64eb21e047a839171b9190a45060016107d4565b604080516001600160a01b03848116602483015260448083018590528351808403909101815260649092019092526020810180516001600160e01b031663a9059cbb60e01b17905261162891859190600090611c9590841683611ce3565b90508051600014158015611cba575080806020019051810190611cb89190612c1f565b155b1561162857604051635274afe760e01b81526001600160a01b0384166004820152602401611a0d565b60606117ba8383600084600080856001600160a01b03168486604051611d099190612c3c565b60006040518083038185875af1925050503d8060008114611d46576040519150601f19603f3d011682016040523d82523d6000602084013e611d4b565b606091505b50915091506114d9868383606082611d6b57611d6682611db2565b6117ba565b8151158015611d8257506001600160a01b0384163b155b15611dab57604051639996b31560e01b81526001600160a01b0385166004820152602401611a0d565b50806117ba565b805115611dc25780518082602001fd5b604051630a12f52160e11b815260040160405180910390fd5b82805482825590600052602060002090601f01602090048101928215611e745791602002820160005b83821115611e4557833560ff1683826101000a81548160ff021916908360ff1602179055509260200192600101602081600001049283019260010302611e04565b8015611e725782816101000a81549060ff0219169055600101602081600001049283019260010302611e45565b505b50611e80929150611e84565b5090565b5b80821115611e805760008155600101611e85565b80356001600160a01b0381168114610a2b57600080fd5b600080600060608486031215611ec557600080fd5b611ece84611e99565b9250611edc60208501611e99565b9150604084013590509250925092565b600060208284031215611efe57600080fd5b81356001600160e01b0319811681146117ba57600080fd5b801515811461160d57600080fd5b600060208284031215611f3657600080fd5b81356117ba81611f16565b600060208284031215611f5357600080fd5b5035919050565b803563ffffffff81168114610a2b57600080fd5b600060208284031215611f8057600080fd5b6117ba82611f5a565b6020808252825182820181905260009190848201906040850190845b81811015611fc457835160ff1683529284019291840191600101611fa5565b50909695505050505050565b600060208284031215611fe257600080fd5b6117ba82611e99565b60008060408385031215611ffe57600080fd5b8235915061200e60208401611e99565b90509250929050565b60008083601f84011261202957600080fd5b5081356001600160401b0381111561204057600080fd5b60208301915083602082850101111561205857600080fd5b9250929050565b60008060006040848603121561207457600080fd5b83356001600160401b0381111561208a57600080fd5b61209686828701612017565b909790965060209590950135949350505050565b6000606082840312156120bc57600080fd5b50919050565b60008083601f8401126120d457600080fd5b5081356001600160401b038111156120eb57600080fd5b6020830191508360208260061b850101111561205857600080fd5b600080600080600080600060e0888a03121561212157600080fd5b61212b89896120aa565b965060608801356001600160401b038082111561214757600080fd5b6121538b838c016120c2565b909850965060808a0135955060a08a013591508082111561217357600080fd5b506121808a828b01612017565b989b979a5095989497959660c090950135949350505050565b634e487b7160e01b600052604160045260246000fd5b60405160c081016001600160401b03811182821017156121d1576121d1612199565b60405290565b604051601f8201601f191681016001600160401b03811182821017156121ff576121ff612199565b604052919050565b80356001600160401b0381168114610a2b57600080fd5b803561ffff81168114610a2b57600080fd5b80356001600160801b0381168114610a2b57600080fd5b6000602080838503121561225a57600080fd5b82356001600160401b038082111561227157600080fd5b818501915085601f83011261228557600080fd5b81358181111561229757612297612199565b6122a5848260051b016121d7565b818152848101925060c09182028401850191888311156122c457600080fd5b938501935b828510156123565780858a0312156122e15760008081fd5b6122e96121af565b6122f286611f5a565b81526122ff878701612207565b878201526040612310818801612207565b90820152606061232187820161221e565b908201526080612332878201612230565b9082015260a0612343878201612230565b90820152845293840193928501926122c9565b50979650505050505050565b60008060008060008060e0878903121561237b57600080fd5b61238588886120aa565b955061239360608801611f5a565b94506123a160808801611e99565b935060a08701356001600160401b038111156123bc57600080fd5b6123c889828a016120c2565b979a969950949794969560c090950135949350505050565b6000806000806000608086880312156123f857600080fd5b61240186611f5a565b945061240f60208701611e99565b93506040860135925060608601356001600160401b0381111561243157600080fd5b61243d88828901612017565b969995985093965092949392505050565b600080600080600080600080600060e08a8c03121561246c57600080fd5b6124758a611e99565b985061248360208b01611e99565b975060408a0135965061249860608b0161221e565b955060808a01356001600160401b03808211156124b457600080fd5b6124c08d838e01612017565b909750955060a08c01359150808211156124d957600080fd5b506124e68c828d01612017565b9a9d999c50979a9699959894979660c00135949350505050565b600061010082840312156120bc57600080fd5b6000806000806060858703121561252957600080fd5b84356001600160401b038082111561254057600080fd5b61254c888389016120c2565b909650945060208701359350604087013591508082111561256c57600080fd5b5061257987828801612500565b91505092959194509250565b60008060006040848603121561259a57600080fd5b6125a384611e99565b925060208401356001600160401b038111156125be57600080fd5b6125ca86828701612017565b9497909650939450505050565b6000602082840312156125e957600080fd5b6117ba8261221e565b60008060006040848603121561260757600080fd5b61261084611f5a565b925060208401356001600160401b038082111561262c57600080fd5b818601915086601f83011261264057600080fd5b81358181111561264f57600080fd5b8760208260051b850101111561266457600080fd5b6020830194508093505050509250925092565b60006020828403121561268957600080fd5b81356001600160401b0381111561269f57600080fd5b6126ab84828501612500565b949350505050565b81835281816020850137506000828201602090810191909152601f909101601f19169091010190565b6040815260006126f06040830185876126b3565b9050826020830152949350505050565b634e487b7160e01b600052603260045260246000fd5b602080825282518282018190526000919060409081850190868401855b828110156127a6578151805163ffffffff168552868101516001600160401b039081168887015286820151168686015260608082015161ffff16908601526080808201516001600160801b039081169187019190915260a091820151169085015260c09093019290850190600101612733565b5091979650505050505050565b80546001600160401b03808216845261ffff8260401c1660208501526001600160801b03808360501c16604086015260018401549250808316606086015250808260801c16608085015250505050565b600061016060018060a01b0380885116845263ffffffff6020890151166020850152806040890151166040850152506060870151606084015261ffff608088015116608084015261285760a08401876127b3565b8061014084015261130781840185876126b3565b60006020828403121561287d57600080fd5b5051919050565b6001600160a01b038981168252881660208201526040810187905261ffff8616606082015260c0608082018190526000906128c290830186886126b3565b82810360a08401526128d58185876126b3565b9b9a5050505050505050505050565b634e487b7160e01b600052601160045260246000fd5b818103818111156107d4576107d46128e4565b6000808335601e1984360301811261292457600080fd5b8301803591506001600160401b0382111561293e57600080fd5b60200191503681900382131561205857600080fd5b63ffffffff61296182611f5a565b168252602081013560208301526001600160401b0361298260408301612207565b1660408301525050565b6129968189612953565b60018060a01b038716606082015285608082015260e060a082015260006129c160e0830186886126b3565b82810360c08401526129d48185876126b3565b9a9950505050505050505050565b84516001600160a01b0390811682526020808701519091169082015260408086015161ffff16908201526000610120612a1e60608401876127b3565b8061010084015261130781840185876126b3565b60006001600160401b03808316818103612a4e57612a4e6128e4565b6001019392505050565b60008085851115612a6857600080fd5b83861115612a7557600080fd5b5050820193919092039150565b6001600160e01b03198135818116916004851015612aaa5780818660040360031b1b83161692505b505092915050565b600060408284031215612ac457600080fd5b604051604081018181106001600160401b0382111715612ae657612ae6612199565b604052612af283611e99565b8152602083013560208201528091505092915050565b808201808211156107d4576107d46128e4565b60008151808452602080850194506020840160005b83811015612b4e578151151587529582019590820190600101612b30565b509495945050505050565b600060e08201612b69838a612953565b63ffffffff881660608401526001600160a01b03878116608085015260e060a0850152908590528590610100840160005b87811015612bcb5782612bac85611e99565b1682526020848101359083015260409384019390910190600101612b9a565b5084810360c08601526128d58187612b1b565b60006001600160401b03821680612bf757612bf76128e4565b6000190192915050565b803560208310156107d457600019602084900360031b1b1692915050565b600060208284031215612c3157600080fd5b81516117ba81611f16565b6000825160005b81811015612c5d5760208186018101518583015201612c43565b50600092019182525091905056fea49807205ce4d355092ef5a8a18f56e8913cf4a201fbe287825b095693c21775a264697066735822122047d13991d12344908b3d75ebcbe7c459044b0eeb487220239191d94ca14155a464736f6c63430008160033","linkReferences":{}},"methodIdentifiers":{"DEFAULT_ADMIN_ROLE()":"a217fddf","allowlistSize()":"d2ae2104","assignJob(address,bytes)":"c015bb7d","assignJob(uint32,address,uint256,bytes)":"717e8a42","compose302(address,address,bytes32,uint16,bytes,bytes,uint256)":"7cd44734","defaultMultiplierBps()":"00bf2e80","dstConfig(uint32)":"9e944965","endpoint()":"5e280f11","execute301(bytes,uint256)":"3146646a","execute302((address,(uint32,bytes32,uint64),bytes32,bytes,bytes,uint256))":"cfc32570","getFee(address,bytes)":"c8f8dcd1","getFee(uint32,address,uint256,bytes)":"709eb664","getRoleAdmin(bytes32)":"248a9ca3","getSupportedOptionTypes(uint32)":"26e67a37","grantRole(bytes32,address)":"2f2ff15d","hasAcl(address)":"2de11376","hasRole(bytes32,address)":"91d14854","localEidV2()":"e395eb5c","nativeDrop((uint32,bytes32,uint64),uint32,address,(address,uint256)[],uint256)":"475b6d9e","nativeDropAndExecute301((uint32,bytes32,uint64),(address,uint256)[],uint256,bytes,uint256)":"3927c075","nativeDropAndExecute302((address,uint256)[],uint256,(address,(uint32,bytes32,uint64),bytes32,bytes,bytes,uint256))":"8624ba07","paused()":"5c975abb","priceFeed()":"741bef1a","receiveUln301()":"c2803b2c","renounceRole(bytes32,address)":"36568abe","revokeRole(bytes32,address)":"d547741f","setDefaultMultiplierBps(uint16)":"c358de0a","setDstConfig((uint32,uint64,uint64,uint16,uint128,uint128)[])":"3d85ac33","setPaused(bool)":"16c38b3c","setPriceFeed(address)":"724e78da","setSupportedOptionTypes(uint32,uint8[])":"cd88b903","setWorkerFeeLib(address)":"c7b2370b","supportsInterface(bytes4)":"01ffc9a7","withdrawFee(address,address,uint256)":"1095b6d7","withdrawToken(address,address,uint256)":"01e33667","workerFeeLib()":"c416aa51"},"id":77}