{"abi":[{"type":"constructor","inputs":[{"name":"options","type":"bytes","internalType":"bytes"},{"name":"applyEnforcedOptions","type":"bool","internalType":"bool"},{"name":"_owner","type":"address","internalType":"address"}],"stateMutability":"nonpayable"},{"type":"function","name":"assertOptionsType3","inputs":[{"name":"options","type":"bytes","internalType":"bytes"}],"outputs":[],"stateMutability":"pure"},{"type":"function","name":"combineOptions","inputs":[{"name":"_eid","type":"uint32","internalType":"uint32"},{"name":"_msgType","type":"uint16","internalType":"uint16"},{"name":"_extraOptions","type":"bytes","internalType":"bytes"}],"outputs":[{"name":"","type":"bytes","internalType":"bytes"}],"stateMutability":"view"},{"type":"function","name":"enforcedOptions","inputs":[{"name":"eid","type":"uint32","internalType":"uint32"},{"name":"msgType","type":"uint16","internalType":"uint16"}],"outputs":[{"name":"enforcedOption","type":"bytes","internalType":"bytes"}],"stateMutability":"view"},{"type":"function","name":"owner","inputs":[],"outputs":[{"name":"","type":"address","internalType":"address"}],"stateMutability":"view"},{"type":"function","name":"renounceOwnership","inputs":[],"outputs":[],"stateMutability":"nonpayable"},{"type":"function","name":"setEnforcedOptions","inputs":[{"name":"_enforcedOptions","type":"tuple[]","internalType":"struct EnforcedOptionParam[]","components":[{"name":"eid","type":"uint32","internalType":"uint32"},{"name":"msgType","type":"uint16","internalType":"uint16"},{"name":"options","type":"bytes","internalType":"bytes"}]}],"outputs":[],"stateMutability":"nonpayable"},{"type":"function","name":"transferOwnership","inputs":[{"name":"newOwner","type":"address","internalType":"address"}],"outputs":[],"stateMutability":"nonpayable"},{"type":"event","name":"EnforcedOptionSet","inputs":[{"name":"_enforcedOptions","type":"tuple[]","indexed":false,"internalType":"struct EnforcedOptionParam[]","components":[{"name":"eid","type":"uint32","internalType":"uint32"},{"name":"msgType","type":"uint16","internalType":"uint16"},{"name":"options","type":"bytes","internalType":"bytes"}]}],"anonymous":false},{"type":"event","name":"OwnershipTransferred","inputs":[{"name":"previousOwner","type":"address","indexed":true,"internalType":"address"},{"name":"newOwner","type":"address","indexed":true,"internalType":"address"}],"anonymous":false},{"type":"error","name":"InvalidOptions","inputs":[{"name":"options","type":"bytes","internalType":"bytes"}]},{"type":"error","name":"OwnableInvalidOwner","inputs":[{"name":"owner","type":"address","internalType":"address"}]},{"type":"error","name":"OwnableUnauthorizedAccount","inputs":[{"name":"account","type":"address","internalType":"address"}]}],"bytecode":{"object":"0x60806040523480156200001157600080fd5b50604051620012d6380380620012d683398101604081905262000034916200032c565b806001600160a01b0381166200006557604051631e4fbdf760e01b8152600060048201526024015b60405180910390fd5b620000708162000113565b5081156200010a57604080516001808252818301909252600091816020015b604080516060808201835260008083526020830152918101919091528152602001906001900390816200008f57505060408051606081018252600180825260208201529081018690528151919250908290600090620000f257620000f26200040b565b6020908102919091010152620001088162000163565b505b50505062000657565b600080546001600160a01b038381166001600160a01b0319831681178455604051919092169283917f8be0079c531659141344cd1fd0a4f28419497f9722a3daafe3b4186f6b6457e09190a35050565b60005b81518110156200025257620001a18282815181106200018957620001896200040b565b6020026020010151604001516200028f60201b60201c565b818181518110620001b657620001b66200040b565b60200260200101516040015160016000848481518110620001db57620001db6200040b565b60200260200101516000015163ffffffff1663ffffffff16815260200190815260200160002060008484815181106200021857620002186200040b565b60200260200101516020015161ffff1661ffff1681526020019081526020016000209081620002489190620004b2565b5060010162000166565b507fbe4864a8e820971c0247f5992e2da559595f7bf076a21cb5928d443d2a13b67481604051620002849190620005ac565b60405180910390a150565b600281015161ffff8116600314620002be5781604051639a6d49cd60e01b81526004016200005c91906200063b565b5050565b634e487b7160e01b600052604160045260246000fd5b60005b83811015620002f5578181015183820152602001620002db565b50506000910152565b805180151581146200030f57600080fd5b919050565b80516001600160a01b03811681146200030f57600080fd5b6000806000606084860312156200034257600080fd5b83516001600160401b03808211156200035a57600080fd5b818601915086601f8301126200036f57600080fd5b815181811115620003845762000384620002c2565b604051601f8201601f19908116603f01168101908382118183101715620003af57620003af620002c2565b81604052828152896020848701011115620003c957600080fd5b620003dc836020830160208801620002d8565b8097505050505050620003f260208501620002fe565b9150620004026040850162000314565b90509250925092565b634e487b7160e01b600052603260045260246000fd5b600181811c908216806200043657607f821691505b6020821081036200045757634e487b7160e01b600052602260045260246000fd5b50919050565b601f821115620004ad576000816000526020600020601f850160051c81016020861015620004885750805b601f850160051c820191505b81811015620004a95782815560010162000494565b5050505b505050565b81516001600160401b03811115620004ce57620004ce620002c2565b620004e681620004df845462000421565b846200045d565b602080601f8311600181146200051e5760008415620005055750858301515b600019600386901b1c1916600185901b178555620004a9565b600085815260208120601f198616915b828110156200054f578886015182559484019460019091019084016200052e565b50858210156200056e5787850151600019600388901b60f8161c191681555b5050505050600190811b01905550565b6000815180845262000598816020860160208601620002d8565b601f01601f19169290920160200192915050565b600060208083018184528085518083526040925060408601915060408160051b87010184880160005b838110156200062d57888303603f190185528151805163ffffffff1684528781015161ffff1688850152860151606087850181905262000618818601836200057e565b968901969450505090860190600101620005d5565b509098975050505050505050565b6020815260006200065060208301846200057e565b9392505050565b610c6f80620006676000396000f3fe608060405234801561001057600080fd5b506004361061007d5760003560e01c80638da5cb5b1161005b5780638da5cb5b146100c8578063b98bd070146100e3578063bc70b354146100f6578063f2fde38b1461010957600080fd5b806333a6ebd5146100825780635535d46114610097578063715018a6146100c0575b600080fd5b61009561009036600461062d565b61011c565b005b6100aa6100a536600461069a565b61015f565b6040516100b7919061071d565b60405180910390f35b610095610204565b6000546040516001600160a01b0390911681526020016100b7565b6100956100f1366004610737565b610218565b6100aa6101043660046107ac565b610232565b61009561011736600461080d565b6103eb565b61015b82828080601f01602080910402602001604051908101604052809392919081815260200183838082843760009201919091525061042992505050565b5050565b60016020908152600092835260408084209091529082529020805461018390610836565b80601f01602080910402602001604051908101604052809291908181526020018280546101af90610836565b80156101fc5780601f106101d1576101008083540402835291602001916101fc565b820191906000526020600020905b8154815290600101906020018083116101df57829003601f168201915b505050505081565b61020c610455565b6102166000610482565b565b610220610455565b61015b61022d82846108e0565b6104d2565b63ffffffff8416600090815260016020908152604080832061ffff8716845290915281208054606092919061026690610836565b80601f016020809104026020016040519081016040528092919081815260200182805461029290610836565b80156102df5780601f106102b4576101008083540402835291602001916102df565b820191906000526020600020905b8154815290600101906020018083116102c257829003601f168201915b50505050509050805160000361032f5783838080601f0160208091040260200160405190810160405280939291908181526020018383808284376000920191909152509294506103e39350505050565b600083900361033f5790506103e3565b600283106103bd5761038684848080601f01602080910402602001604051908101604052809392919081815260200183838082843760009201919091525061042992505050565b806103948460028188610a06565b6040516020016103a693929190610a30565b6040516020818303038152906040529150506103e3565b8383604051639a6d49cd60e01b81526004016103da929190610a58565b60405180910390fd5b949350505050565b6103f3610455565b6001600160a01b03811661041d57604051631e4fbdf760e01b8152600060048201526024016103da565b61042681610482565b50565b600281015161ffff811660031461015b5781604051639a6d49cd60e01b81526004016103da919061071d565b6000546001600160a01b031633146102165760405163118cdaa760e01b81523360048201526024016103da565b600080546001600160a01b038381166001600160a01b0319831681178455604051919092169283917f8be0079c531659141344cd1fd0a4f28419497f9722a3daafe3b4186f6b6457e09190a35050565b60005b81518110156105a9576105048282815181106104f3576104f3610a87565b602002602001015160400151610429565b81818151811061051657610516610a87565b6020026020010151604001516001600084848151811061053857610538610a87565b60200260200101516000015163ffffffff1663ffffffff168152602001908152602001600020600084848151811061057257610572610a87565b60200260200101516020015161ffff1661ffff16815260200190815260200160002090816105a09190610aee565b506001016104d5565b507fbe4864a8e820971c0247f5992e2da559595f7bf076a21cb5928d443d2a13b674816040516105d99190610bae565b60405180910390a150565b60008083601f8401126105f657600080fd5b50813567ffffffffffffffff81111561060e57600080fd5b60208301915083602082850101111561062657600080fd5b9250929050565b6000806020838503121561064057600080fd5b823567ffffffffffffffff81111561065757600080fd5b610663858286016105e4565b90969095509350505050565b803563ffffffff8116811461068357600080fd5b919050565b803561ffff8116811461068357600080fd5b600080604083850312156106ad57600080fd5b6106b68361066f565b91506106c460208401610688565b90509250929050565b60005b838110156106e85781810151838201526020016106d0565b50506000910152565b600081518084526107098160208601602086016106cd565b601f01601f19169290920160200192915050565b60208152600061073060208301846106f1565b9392505050565b6000806020838503121561074a57600080fd5b823567ffffffffffffffff8082111561076257600080fd5b818501915085601f83011261077657600080fd5b81358181111561078557600080fd5b8660208260051b850101111561079a57600080fd5b60209290920196919550909350505050565b600080600080606085870312156107c257600080fd5b6107cb8561066f565b93506107d960208601610688565b9250604085013567ffffffffffffffff8111156107f557600080fd5b610801878288016105e4565b95989497509550505050565b60006020828403121561081f57600080fd5b81356001600160a01b038116811461073057600080fd5b600181811c9082168061084a57607f821691505b60208210810361086a57634e487b7160e01b600052602260045260246000fd5b50919050565b634e487b7160e01b600052604160045260246000fd5b6040516060810167ffffffffffffffff811182821017156108a9576108a9610870565b60405290565b604051601f8201601f1916810167ffffffffffffffff811182821017156108d8576108d8610870565b604052919050565b600067ffffffffffffffff808411156108fb576108fb610870565b8360051b602061090c8183016108af565b86815291850191818101903684111561092457600080fd5b865b848110156109fa5780358681111561093e5760008081fd5b880160603682900312156109525760008081fd5b61095a610886565b6109638261066f565b8152610970868301610688565b86820152604080830135898111156109885760008081fd5b9290920191601f368185011261099e5760008081fd5b83358a8111156109b0576109b0610870565b6109c1818301601f19168a016108af565b915080825236898287010111156109d85760008081fd5b808986018a840137600090820189015290820152845250918301918301610926565b50979650505050505050565b60008085851115610a1657600080fd5b83861115610a2357600080fd5b5050820193919092039150565b60008451610a428184602089016106cd565b8201838582376000930192835250909392505050565b60208152816020820152818360408301376000818301604090810191909152601f909201601f19160101919050565b634e487b7160e01b600052603260045260246000fd5b601f821115610ae9576000816000526020600020601f850160051c81016020861015610ac65750805b601f850160051c820191505b81811015610ae557828155600101610ad2565b5050505b505050565b815167ffffffffffffffff811115610b0857610b08610870565b610b1c81610b168454610836565b84610a9d565b602080601f831160018114610b515760008415610b395750858301515b600019600386901b1c1916600185901b178555610ae5565b600085815260208120601f198616915b82811015610b8057888601518255948401946001909101908401610b61565b5085821015610b9e5787850151600019600388901b60f8161c191681555b5050505050600190811b01905550565b600060208083018184528085518083526040925060408601915060408160051b87010184880160005b83811015610c2b57888303603f190185528151805163ffffffff1684528781015161ffff16888501528601516060878501819052610c17818601836106f1565b968901969450505090860190600101610bd7565b50909897505050505050505056fea2646970667358221220450955c1ab8f27a8ba8b29bf084db8516a4de6e673f9b8dad6b1889c2528803264736f6c63430008160033","linkReferences":{}},"methodIdentifiers":{"assertOptionsType3(bytes)":"33a6ebd5","combineOptions(uint32,uint16,bytes)":"bc70b354","enforcedOptions(uint32,uint16)":"5535d461","owner()":"8da5cb5b","renounceOwnership()":"715018a6","setEnforcedOptions((uint32,uint16,bytes)[])":"b98bd070","transferOwnership(address)":"f2fde38b"},"id":128}